{
  "contractName": "BancorFormula",
  "abi": [
    {
      "constant": true,
      "inputs": [],
      "name": "version",
      "outputs": [
        {
          "name": "",
          "type": "string"
        }
      ],
      "payable": false,
      "stateMutability": "view",
      "type": "function"
    },
    {
      "constant": true,
      "inputs": [
        {
          "name": "_supply",
          "type": "uint256"
        },
        {
          "name": "_connectorBalance",
          "type": "uint256"
        },
        {
          "name": "_connectorWeight",
          "type": "uint32"
        },
        {
          "name": "_depositAmount",
          "type": "uint256"
        }
      ],
      "name": "calculatePurchaseReturn",
      "outputs": [
        {
          "name": "",
          "type": "uint256"
        }
      ],
      "payable": false,
      "stateMutability": "view",
      "type": "function"
    },
    {
      "constant": true,
      "inputs": [
        {
          "name": "_supply",
          "type": "uint256"
        },
        {
          "name": "_connectorBalance",
          "type": "uint256"
        },
        {
          "name": "_connectorWeight",
          "type": "uint32"
        },
        {
          "name": "_sellAmount",
          "type": "uint256"
        }
      ],
      "name": "calculateSaleReturn",
      "outputs": [
        {
          "name": "",
          "type": "uint256"
        }
      ],
      "payable": false,
      "stateMutability": "view",
      "type": "function"
    }
  ],
  "bytecode": "0x60806040526040805190810160405280600381526020017f302e330000000000000000000000000000000000000000000000000000000000815250600090805190602001906200005192919062001071565b50600180556020600260006101000a81548160ff021916908360ff160217905550607f600260016101000a81548160ff021916908360ff1602179055506f800000000000000000000000000000006003557002000000000000000000000000000000006004556f03f80fe03f80fe03f80fe03f80fe03f86005556f05b9de1d10bf4103d647b0955897ba8060065570015bf0a8b1457695355fb8ac404e7a79e36007557008000000000000000000000000000000006008556040805190810160405280600381526020017f302e330000000000000000000000000000000000000000000000000000000000815250608990805190602001906200015692919062001071565b50620f4240608a60006101000a81548163ffffffff021916908363ffffffff160217905550701c35fedd14ffffffffffffffffffffffff600960206080811015156200019e57fe5b0181905550701b0ce43b323fffffffffffffffffffffff60096021608081101515620001c657fe5b01819055507019f0028ec1ffffffffffffffffffffffff60096022608081101515620001ee57fe5b01819055507018ded91f0e7fffffffffffffffffffffff600960236080811015156200021657fe5b01819055507017d8ec7f0417ffffffffffffffffffffff600960246080811015156200023e57fe5b01819055507016ddc6556cdbffffffffffffffffffffff600960256080811015156200026657fe5b01819055507015ecf52776a1ffffffffffffffffffffff600960266080811015156200028e57fe5b01819055507015060c256cb2ffffffffffffffffffffff60096027608081101515620002b657fe5b0181905550701428a2f98d72ffffffffffffffffffffff60096028608081101515620002de57fe5b01819055507013545598e5c23fffffffffffffffffffff600960296080811015156200030657fe5b0181905550701288c4161ce1dfffffffffffffffffffff6009602a6080811015156200032e57fe5b01819055507011c592761c666fffffffffffffffffffff6009602b6080811015156200035657fe5b018190555070110a688680a757ffffffffffffffffffff6009602c6080811015156200037e57fe5b0181905550701056f1b5bedf77ffffffffffffffffffff6009602d608081101515620003a657fe5b0181905550700faadceceeff8bffffffffffffffffffff6009602e608081101515620003ce57fe5b0181905550700f05dc6b27edadffffffffffffffffffff6009602f608081101515620003f657fe5b0181905550700e67a5a25da4107fffffffffffffffffff600960306080811015156200041e57fe5b0181905550700dcff115b14eedffffffffffffffffffff600960316080811015156200044657fe5b0181905550700d3e7a392431239fffffffffffffffffff600960326080811015156200046e57fe5b0181905550700cb2ff529eb71e4fffffffffffffffffff600960336080811015156200049657fe5b0181905550700c2d415c3db974afffffffffffffffffff60096034608081101515620004be57fe5b0181905550700bad03e7d883f69bffffffffffffffffff60096035608081101515620004e657fe5b0181905550700b320d03b2c343d5ffffffffffffffffff600960366080811015156200050e57fe5b0181905550700abc25204e02828dffffffffffffffffff600960376080811015156200053657fe5b0181905550700a4b16f74ee4bb207fffffffffffffffff600960386080811015156200055e57fe5b01819055507009deaf736ac1f569ffffffffffffffffff600960396080811015156200058657fe5b0181905550700976bd9952c7aa957fffffffffffffffff6009603a608081101515620005ae57fe5b01819055507009131271922eaa606fffffffffffffffff6009603b608081101515620005d657fe5b01819055507008b380f3558668c46fffffffffffffffff6009603c608081101515620005fe57fe5b0181905550700857ddf0117efa215bffffffffffffffff6009603d6080811015156200062657fe5b01819055507007ffffffffffffffffffffffffffffffff6009603e6080811015156200064e57fe5b01819055507007abbf6f6abb9d087fffffffffffffffff6009603f6080811015156200067657fe5b018190555070075af62cbac95f7dfa7fffffffffffffff600960406080811015156200069e57fe5b018190555070070d7fb7452e187ac13fffffffffffffff60096041608081101515620006c657fe5b01819055507006c3390ecc8af379295fffffffffffffff60096042608081101515620006ee57fe5b018190555070067c00a3b07ffc01fd6fffffffffffffff600960436080811015156200071657fe5b0181905550700637b647c39cbb9d3d27ffffffffffffff600960446080811015156200073e57fe5b01819055507005f63b1fc104dbd39587ffffffffffffff600960456080811015156200076657fe5b01819055507005b771955b36e12f7235ffffffffffffff600960466080811015156200078e57fe5b018190555070057b3d49dda84556d6f6ffffffffffffff60096047608081101515620007b657fe5b018190555070054183095b2c8ececf30ffffffffffffff60096048608081101515620007de57fe5b018190555070050a28be635ca2b888f77fffffffffffff600960496080811015156200080657fe5b01819055507004d5156639708c9db33c3fffffffffffff6009604a6080811015156200082e57fe5b01819055507004a23105873875bd52dfdfffffffffffff6009604b6080811015156200085657fe5b0181905550700471649d87199aa990756fffffffffffff6009604c6080811015156200087e57fe5b01819055507004429a21a029d4c1457cfbffffffffffff6009604d608081101515620008a657fe5b0181905550700415bc6d6fb7dd71af2cb3ffffffffffff6009604e608081101515620008ce57fe5b01819055507003eab73b3bbfe282243ce1ffffffffffff6009604f608081101515620008f657fe5b01819055507003c1771ac9fb6b4c18e229ffffffffffff600960506080811015156200091e57fe5b0181905550700399e96897690418f785257fffffffffff600960516080811015156200094657fe5b0181905550700373fc456c53bb779bf0ea9fffffffffff600960526080811015156200096e57fe5b018190555070034f9e8e490c48e67e6ab8bfffffffffff600960536080811015156200099657fe5b018190555070032cbfd4a7adc790560b3337ffffffffff60096054608081101515620009be57fe5b018190555070030b50570f6e5d2acca94613ffffffffff60096055608081101515620009e657fe5b01819055507002eb40f9f620fda6b56c2861ffffffffff6009605660808110151562000a0e57fe5b01819055507002cc8340ecb0d0f520a6af58ffffffffff6009605760808110151562000a3657fe5b01819055507002af09481380a0a35cf1ba02ffffffffff6009605860808110151562000a5e57fe5b0181905550700292c5bdd3b92ec810287b1b3fffffffff6009605960808110151562000a8657fe5b0181905550700277abdcdab07d5a77ac6d6b9fffffffff6009605a60808110151562000aae57fe5b018190555070025daf6654b1eaa55fd64df5efffffffff6009605b60808110151562000ad657fe5b0181905550700244c49c648baa98192dce88b7ffffffff6009605c60808110151562000afe57fe5b018190555070022ce03cd5619a311b2471268bffffffff6009605d60808110151562000b2657fe5b0181905550700215f77c045fbe885654a44a0fffffffff6009605e60808110151562000b4e57fe5b01819055507001ffffffffffffffffffffffffffffffff6009605f60808110151562000b7657fe5b01819055507001eaefdbdaaee7421fc4d3ede5ffffffff6009606060808110151562000b9e57fe5b01819055507001d6bd8b2eb257df7e8ca57b09bfffffff6009606160808110151562000bc657fe5b01819055507001c35fedd14b861eb0443f7f133fffffff6009606260808110151562000bee57fe5b01819055507001b0ce43b322bcde4a56e8ada5afffffff6009606360808110151562000c1657fe5b018190555070019f0028ec1fff007f5a195a39dfffffff6009606460808110151562000c3e57fe5b018190555070018ded91f0e72ee74f49b15ba527ffffff6009606560808110151562000c6657fe5b018190555070017d8ec7f04136f4e5615fd41a63ffffff6009606660808110151562000c8e57fe5b018190555070016ddc6556cdb84bdc8d12d22e6fffffff6009606760808110151562000cb657fe5b018190555070015ecf52776a1155b5bd8395814f7fffff6009606860808110151562000cde57fe5b018190555070015060c256cb23b3b3cc3754cf40ffffff6009606960808110151562000d0657fe5b01819055507001428a2f98d728ae223ddab715be3fffff6009606a60808110151562000d2e57fe5b018190555070013545598e5c23276ccf0ede68034fffff6009606b60808110151562000d5657fe5b01819055507001288c4161ce1d6f54b7f61081194fffff6009606c60808110151562000d7e57fe5b018190555070011c592761c666aa641d5a01a40f17ffff6009606d60808110151562000da657fe5b0181905550700110a688680a7530515f3e6e6cfdcdffff6009606e60808110151562000dce57fe5b01819055507001056f1b5bedf75c6bcb2ce8aed428ffff6009606f60808110151562000df657fe5b01819055506ffaadceceeff8a0890f3875f008277fff6009607060808110151562000e1d57fe5b01819055506ff05dc6b27edad306388a600f6ba0bfff6009607160808110151562000e4457fe5b01819055506fe67a5a25da41063de1495d5b18cdbfff6009607260808110151562000e6b57fe5b01819055506fdcff115b14eedde6fc3aa5353f2e4fff6009607360808110151562000e9257fe5b01819055506fd3e7a3924312399f9aae2e0f868f8fff6009607460808110151562000eb957fe5b01819055506fcb2ff529eb71e41582cccd5a1ee26fff6009607560808110151562000ee057fe5b01819055506fc2d415c3db974ab32a51840c0b67edff6009607660808110151562000f0757fe5b01819055506fbad03e7d883f69ad5b0a186184e06bff6009607760808110151562000f2e57fe5b01819055506fb320d03b2c343d4829abd6075f0cc5ff6009607860808110151562000f5557fe5b01819055506fabc25204e02828d73c6e80bcdb1a95bf6009607960808110151562000f7c57fe5b01819055506fa4b16f74ee4bb2040a1ec6c15fbbf2df6009607a60808110151562000fa357fe5b01819055506f9deaf736ac1f569deb1b5ae3f36c130f6009607b60808110151562000fca57fe5b01819055506f976bd9952c7aa957f5937d790ef650376009607c60808110151562000ff157fe5b01819055506f9131271922eaa6064b73a22d0bd4f2bf6009607d6080811015156200101857fe5b01819055506f8b380f3558668c46c91c49a2f8e967b96009607e6080811015156200103f57fe5b01819055506f857ddf0117efa215952912839f6473e66009607f6080811015156200106657fe5b018190555062001120565b828054600181600116156101000203166002900490600052602060002090601f016020900481019282601f10620010b457805160ff1916838001178555620010e5565b82800160010185558215620010e5579182015b82811115620010e4578251825591602001919060010190620010c7565b5b509050620010f49190620010f8565b5090565b6200111d91905b8082111562001119576000816000905550600101620010ff565b5090565b90565b6119ae80620011306000396000f3fe608060405260043610610057576000357c0100000000000000000000000000000000000000000000000000000000900463ffffffff16806329a00e7c1461005c57806349f9b0f7146100cf57806354fd4d5014610142575b600080fd5b34801561006857600080fd5b506100b96004803603608081101561007f57600080fd5b810190808035906020019092919080359060200190929190803563ffffffff169060200190929190803590602001909291905050506101d2565b6040518082815260200191505060405180910390f35b3480156100db57600080fd5b5061012c600480360360808110156100f257600080fd5b810190808035906020019092919080359060200190929190803563ffffffff16906020019092919080359060200190929190505050610305565b6040518082815260200191505060405180910390f35b34801561014e57600080fd5b50610157610467565b6040518080602001828103825283818151815260200191508051906020019080838360005b8381101561019757808201518184015260208101905061017c565b50505050905090810190601f1680156101c45780820380516001836020036101000a031916815260200191505b509250505060405180910390f35b600080851180156101e35750600084115b80156101f5575060008363ffffffff16115b801561021f5750608a60009054906101000a900463ffffffff1663ffffffff168363ffffffff1611155b151561022a57600080fd5b600082141561023c57600090506102fd565b608a60009054906101000a900463ffffffff1663ffffffff168363ffffffff16141561028e5761028784610279848861050590919063ffffffff16565b6105d290919063ffffffff16565b90506102fd565b60008060006102a6878661066590919063ffffffff16565b90506102c6818888608a60009054906101000a900463ffffffff166106ef565b809350819450505060008260ff166102e7858b61050590919063ffffffff16565b908060020a820491505090508881039450505050505b949350505050565b600080851180156103165750600084115b8015610328575060008363ffffffff16115b80156103525750608a60009054906101000a900463ffffffff1663ffffffff168363ffffffff1611155b801561035e5750848211155b151561036957600080fd5b600082141561037b576000905061045f565b8482141561038b5783905061045f565b608a60009054906101000a900463ffffffff1663ffffffff168363ffffffff1614156103dd576103d6856103c8848761050590919063ffffffff16565b6105d290919063ffffffff16565b905061045f565b600080600084880390506104058882608a60009054906101000a900463ffffffff16896106ef565b80935081945050506000610422848961050590919063ffffffff16565b905060008360ff16899060020a02905061045785610449838561084890919063ffffffff16565b6105d290919063ffffffff16565b955050505050505b949350505050565b60898054600181600116156101000203166002900480601f0160208091040260200160405190810160405280929190818152602001828054600181600116156101000203166002900480156104fd5780601f106104d2576101008083540402835291602001916104fd565b820191906000526020600020905b8154815290600101906020018083116104e057829003601f168201915b505050505081565b60008083141561051857600090506105cc565b6000828402905082848281151561052b57fe5b041415156105c7576040517f08c379a00000000000000000000000000000000000000000000000000000000081526004018080602001828103825260218152602001807f536166654d6174683a206d756c7469706c69636174696f6e206f766572666c6f81526020017f770000000000000000000000000000000000000000000000000000000000000081525060400191505060405180910390fd5b809150505b92915050565b6000808211151561064b576040517f08c379a000000000000000000000000000000000000000000000000000000000815260040180806020018281038252601a8152602001807f536166654d6174683a206469766973696f6e206279207a65726f00000000000081525060200191505060405180910390fd5b6000828481151561065857fe5b0490508091505092915050565b60008082840190508381101515156106e5576040517f08c379a000000000000000000000000000000000000000000000000000000000815260040180806020018281038252601b8152602001807f536166654d6174683a206164646974696f6e206f766572666c6f77000000000081525060200191505060405180910390fd5b8091505092915050565b600080600454861015156106ff57fe5b848610151515610777576040517f08c379a000000000000000000000000000000000000000000000000000000000815260040180806020018281038252601c8152602001807f4261736573203c203120617265206e6f7420737570706f727465642e0000000081525060200191505060405180910390fd5b60008086600354890281151561078957fe5b0490506007548110156107a65761079f816108d3565b91506107b2565b6107af81610db5565b91505b60008563ffffffff168763ffffffff1684028115156107cd57fe5b0490506008548110156107ff576107e381610eb5565b600260019054906101000a900460ff169450945050505061083f565b600061080a8261135d565b905061083581600260019054906101000a900460ff160360ff1683908060020a82049150508261143e565b8195509550505050505b94509492505050565b60008282111515156108c2576040517f08c379a000000000000000000000000000000000000000000000000000000000815260040180806020018281038252601e8152602001807f536166654d6174683a207375627472616374696f6e206f766572666c6f77000081525060200191505060405180910390fd5b600082840390508091505092915050565b6000806000905060008060006fd3094c70f034de4b96ff7d5b6f99fcd886101515610930576f40000000000000000000000000000000840193506fd3094c70f034de4b96ff7d5b6f99fcd8600354870281151561092c57fe5b0495505b6fa45af1e1f40c333b3de1db4dd55f29a786101515610981576f20000000000000000000000000000000840193506fa45af1e1f40c333b3de1db4dd55f29a7600354870281151561097d57fe5b0495505b6f910b022db7ae67ce76b441c27035c6a1861015156109d2576f10000000000000000000000000000000840193506f910b022db7ae67ce76b441c27035c6a160035487028115156109ce57fe5b0495505b6f88415abbe9a76bead8d00cf112e4d4a886101515610a23576f08000000000000000000000000000000840193506f88415abbe9a76bead8d00cf112e4d4a86003548702811515610a1f57fe5b0495505b6f84102b00893f64c705e841d5d4064bd386101515610a74576f04000000000000000000000000000000840193506f84102b00893f64c705e841d5d4064bd36003548702811515610a7057fe5b0495505b6f8204055aaef1c8bd5c3259f4822735a286101515610ac5576f02000000000000000000000000000000840193506f8204055aaef1c8bd5c3259f4822735a26003548702811515610ac157fe5b0495505b6f810100ab00222d861931c15e39b44e9986101515610b16576f01000000000000000000000000000000840193506f810100ab00222d861931c15e39b44e996003548702811515610b1257fe5b0495505b6f808040155aabbbe9451521693554f73386101515610b66576e800000000000000000000000000000840193506f808040155aabbbe9451521693554f7336003548702811515610b6257fe5b0495505b60035486039250829150600354838402811515610b7f57fe5b04905070010000000000000000000000000000000083700100000000000000000000000000000000038302811515610bb357fe5b0484019350600354818302811515610bc757fe5b049150700200000000000000000000000000000000836faaaaaaaaaaaaaaaaaaaaaaaaaaaaaaaa038302811515610bfa57fe5b0484019350600354818302811515610c0e57fe5b049150700300000000000000000000000000000000836f99999999999999999999999999999999038302811515610c4157fe5b0484019350600354818302811515610c5557fe5b049150700400000000000000000000000000000000836f92492492492492492492492492492492038302811515610c8857fe5b0484019350600354818302811515610c9c57fe5b049150700500000000000000000000000000000000836f8e38e38e38e38e38e38e38e38e38e38e038302811515610ccf57fe5b0484019350600354818302811515610ce357fe5b049150700600000000000000000000000000000000836f8ba2e8ba2e8ba2e8ba2e8ba2e8ba2e8b038302811515610d1657fe5b0484019350600354818302811515610d2a57fe5b049150700700000000000000000000000000000000836f89d89d89d89d89d89d89d89d89d89d89038302811515610d5d57fe5b0484019350600354818302811515610d7157fe5b049150700800000000000000000000000000000000836f88888888888888888888888888888888038302811515610da457fe5b048401935083945050505050919050565b60008060009050600083905070010000000000000000000000000000000081101515610e12576000610df360035483811515610ded57fe5b046118e2565b90508060ff1682908060020a820491505091506003548160ff16029250505b600354811115610e9a576000600260019054906101000a900460ff1690505b60008160ff161115610e9857600354828302811515610e4c57fe5b04915070010000000000000000000000000000000082101515610e8c57600182908060020a820491505091506001810360ff166001549060020a02830192505b80600190039050610e31565b505b6006546005548302811515610eab57fe5b0492505050919050565b600080600090506000806f1000000000000000000000000000000085811515610eda57fe5b069150819050600354828202811515610eef57fe5b0490506710e1b3be415a0000810283019250600354828202811515610f1057fe5b0490506705a0913f6b1e0000810283019250600354828202811515610f3157fe5b049050670168244fdac78000810283019250600354828202811515610f5257fe5b049050664807432bc18000810283019250600354828202811515610f7257fe5b049050660c0135dca04000810283019250600354828202811515610f9257fe5b0490506601b707b1cdc000810283019250600354828202811515610fb257fe5b0490506536e0f639b800810283019250600354828202811515610fd157fe5b049050650618fee9f800810283019250600354828202811515610ff057fe5b049050649c197dcc0081028301925060035482820281151561100e57fe5b049050640e30dce40081028301925060035482820281151561102c57fe5b04905064012ebd130081028301925060035482820281151561104a57fe5b0490506317499f0081028301925060035482820281151561106757fe5b0490506301a9d48081028301925060035482820281151561108457fe5b049050621c63808102830192506003548282028115156110a057fe5b0490506201c6388102830192506003548282028115156110bc57fe5b049050611ab88102830192506003548282028115156110d757fe5b04905061017c8102830192506003548282028115156110f257fe5b049050601481028301925060035482820281151561110c57fe5b0490506001810283019250600354826721c3677c82b400008581151561112e57fe5b040101925060006f1000000000000000000000000000000086161415156111825770018ebef9eac820ae8682b9793ac6d1e7767001c3d6a24ed82218787d624d3e5eba95f9840281151561117e57fe5b0492505b60006f2000000000000000000000000000000086161415156111d1577001368b2fc6f9609fe7aceb46aa619baed470018ebef9eac820ae8682b9793ac6d1e77884028115156111cd57fe5b0492505b60006f40000000000000000000000000000000861614151561121f576fbc5ab1b16779be3575bd8f0520a9f21f7001368b2fc6f9609fe7aceb46aa619baed5840281151561121b57fe5b0492505b60006f80000000000000000000000000000000861614151561126c576f454aaa8efe072e7f6ddbab84b40a55c96fbc5ab1b16779be3575bd8f0520a9f21e840281151561126857fe5b0492505b600070010000000000000000000000000000000086161415156112ba576f0960aadc109e7a3bf4578099615711ea6f454aaa8efe072e7f6ddbab84b40a55c584028115156112b657fe5b0492505b60007002000000000000000000000000000000008616141515611307576e2bf84208204f5977f9a8cf01fdce3d6f0960aadc109e7a3bf4578099615711d7840281151561130357fe5b0492505b60007004000000000000000000000000000000008616141515611352576d03c6ab775dd0b95b4cbee7e65d116e2bf84208204f5977f9a8cf01fdc307840281151561134e57fe5b0492505b829350505050919050565b600080600260009054906101000a900460ff1690506000600260019054906101000a900460ff1690505b8060ff166001830160ff1610156113dc576000600282840160ff168115156113ab57fe5b0490508460098260ff166080811015156113c157fe5b01541015156113d2578092506113d6565b8091505b50611387565b8360098260ff166080811015156113ef57fe5b0154101515611402578092505050611439565b8360098360ff1660808110151561141557fe5b0154101515611428578192505050611439565b6000151561143257fe5b6000925050505b919050565b60008083905060008090508360ff16858302908060020a820491505091506f03442c4e6074a82f1797f72ac00000008202810190508360ff16858302908060020a820491505091506f0116b96f757c380fb287fd0e400000008202810190508360ff16858302908060020a820491505091506e45ae5bdd5f0e03eca1ff43900000008202810190508360ff16858302908060020a820491505091506e0defabf91302cd95b9ffda500000008202810190508360ff16858302908060020a820491505091506e02529ca9832b22439efff9b80000008202810190508360ff16858302908060020a820491505091506d54f1cf12bd04e516b6da880000008202810190508360ff16858302908060020a820491505091506d0a9e39e257a09ca2d6db510000008202810190508360ff16858302908060020a820491505091506d012e066e7b839fa050c3090000008202810190508360ff16858302908060020a820491505091506c1e33d7d926c329a1ad1a8000008202810190508360ff16858302908060020a820491505091506c02bee513bdb4a6b19b5f8000008202810190508360ff16858302908060020a820491505091506b3a9316fa79b88eccf2a000008202810190508360ff16858302908060020a820491505091506b048177ebe1fa8123752000008202810190508360ff16858302908060020a820491505091506a5263fe90242dcbacf000008202810190508360ff16858302908060020a820491505091506a057e22099c030d941000008202810190508360ff16858302908060020a820491505091506957e22099c030d94100008202810190508360ff16858302908060020a8204915050915069052b6b545699763100008202810190508360ff16858302908060020a82049150509150684985f67696bf7480008202810190508360ff16858302908060020a820491505091506803dea12ea99e4980008202810190508360ff16858302908060020a820491505091506731880f2214b6e0008202810190508360ff16858302908060020a8204915050915067025bcff56eb360008202810190508360ff16858302908060020a82049150509150661b722e10ab10008202810190508360ff16858302908060020a820491505091506601317c700770008202810190508360ff16858302908060020a82049150509150650cba84aafa008202810190508360ff16858302908060020a820491505091506482573a0a008202810190508360ff16858302908060020a820491505091506405035ad9008202810190508360ff16858302908060020a82049150509150632f881b008202810190508360ff16858302908060020a820491505091506301b293408202810190508360ff16858302908060020a82049150509150620efc408202810190508360ff16858302908060020a82049150509150617fe08202810190508360ff16858302908060020a820491505091506104208202810190508360ff16858302908060020a8204915050915060218202810190508360ff16858302908060020a8204915050915060018202810190508360ff166001549060020a02856f0688589cc0e9505e2f2fee5580000000838115156118d557fe5b0401019250505092915050565b600080600090506000839050610100811015611921575b600181111561191c57600181908060020a820491505090506001820191506118f9565b611978565b6000608090505b60008160ff161115611976578060ff166001549060020a028210151561195f578060ff1682908060020a8204915050915080831792505b60018160ff16908060020a82049150509050611928565b505b819250505091905056fea165627a7a723058200ca3219b6c60d9bd60efc4a62197421f09c69b8ccc29c6a6a2f6f018fac0af610029",
  "source": "pragma solidity ^0.5.0;\n\nimport \"openzeppelin-solidity/contracts/math/SafeMath.sol\";\n\nimport \"./Math/Power.sol\";\n\n/**\n * @title Bancor formula by Bancor\n * @dev Modified from the original by Slava Balasanov\n * https://github.com/bancorprotocol/contracts\n * Split Power.sol out from BancorFormula.sol and replace SafeMath formulas with zeppelin's SafeMath\n * Licensed to the Apache Software Foundation (ASF) under one or more contributor license agreements;\n * and to You under the Apache License, Version 2.0. \"\n */\ncontract BancorFormula is Power {\n    using SafeMath for uint256;\n    string public version = \"0.3\";\n    uint32 private MAX_WEIGHT = 1000000;\n\n    /**\n   * @dev given a token supply, connector balance, weight and a deposit amount (in the connector token),\n   * calculates the return for a given conversion (in the main token)\n   *\n   * Formula:\n   * Return = _supply * ((1 + _depositAmount / _connectorBalance) ^ (_connectorWeight / 1000000) - 1)\n   *\n   * @param _supply              token total supply\n   * @param _connectorBalance    total connector balance\n   * @param _connectorWeight     connector weight, represented in ppm, 1-1000000\n   * @param _depositAmount       deposit amount, in connector token\n   *\n   *  @return purchase return amount\n  */\n    function calculatePurchaseReturn(\n        uint256 _supply,\n        uint256 _connectorBalance,\n        uint32 _connectorWeight,\n        uint256 _depositAmount\n    ) public view returns (uint256) {\n        // validate input\n        require(\n            _supply > 0 &&\n                _connectorBalance > 0 &&\n                _connectorWeight > 0 &&\n                _connectorWeight <= MAX_WEIGHT\n        );\n        // special case for 0 deposit amount\n        if (_depositAmount == 0) {\n            return 0;\n        }\n        // special case if the weight = 100%\n        if (_connectorWeight == MAX_WEIGHT) {\n            return _supply.mul(_depositAmount).div(_connectorBalance);\n        }\n        uint256 result;\n        uint8 precision;\n        uint256 baseN = _depositAmount.add(_connectorBalance);\n        (result, precision) = power(\n            baseN,\n            _connectorBalance,\n            _connectorWeight,\n            MAX_WEIGHT\n        );\n        uint256 newTokenSupply = _supply.mul(result) >> precision;\n        return newTokenSupply - _supply;\n    }\n    /**\n   * @dev given a token supply, connector balance, weight and a sell amount (in the main token),\n   * calculates the return for a given conversion (in the connector token)\n   *\n   * Formula:\n   * Return = _connectorBalance * (1 - (1 - _sellAmount / _supply) ^ (1 / (_connectorWeight / 1000000)))\n   *\n   * @param _supply              token total supply\n   * @param _connectorBalance    total connector\n   * @param _connectorWeight     constant connector Weight, represented in ppm, 1-1000000\n   * @param _sellAmount          sell amount, in the token itself\n   *\n   * @return sale return amount\n  */\n    function calculateSaleReturn(\n        uint256 _supply,\n        uint256 _connectorBalance,\n        uint32 _connectorWeight,\n        uint256 _sellAmount\n    ) public view returns (uint256) {\n        // validate input\n        require(\n            _supply > 0 &&\n                _connectorBalance > 0 &&\n                _connectorWeight > 0 &&\n                _connectorWeight <= MAX_WEIGHT &&\n                _sellAmount <= _supply\n        );\n        // special case for 0 sell amount\n        if (_sellAmount == 0) {\n            return 0;\n        }\n        // special case for selling the entire supply\n        if (_sellAmount == _supply) {\n            return _connectorBalance;\n        }\n        // special case if the weight = 100%\n        if (_connectorWeight == MAX_WEIGHT) {\n            return _connectorBalance.mul(_sellAmount).div(_supply);\n        }\n        uint256 result;\n        uint8 precision;\n        uint256 baseD = _supply - _sellAmount;\n        (result, precision) = power(\n            _supply,\n            baseD,\n            MAX_WEIGHT,\n            _connectorWeight\n        );\n        uint256 oldBalance = _connectorBalance.mul(result);\n        uint256 newBalance = _connectorBalance << precision;\n        return oldBalance.sub(newBalance).div(result);\n    }\n}\n",
  "sourcePath": "/Users/michaeljcohen/Desktop/projects/micronews/contracts/BancorFormula.sol",
  "compiler": {
    "name": "solc",
    "version": "0.5.0+commit.1d4f565a.Emscripten.clang"
  },
  "schemaVersion": "3.0.2",
  "updatedAt": "2019-09-30T20:28:19.813Z",
  "devdoc": {
    "details": "Modified from the original by Slava Balasanov https://github.com/bancorprotocol/contracts Split Power.sol out from BancorFormula.sol and replace SafeMath formulas with zeppelin's SafeMath Licensed to the Apache Software Foundation (ASF) under one or more contributor license agreements; and to You under the Apache License, Version 2.0. \"",
    "methods": {
      "calculatePurchaseReturn(uint256,uint256,uint32,uint256)": {
        "details": "given a token supply, connector balance, weight and a deposit amount (in the connector token), calculates the return for a given conversion (in the main token)   * Formula: Return = _supply * ((1 + _depositAmount / _connectorBalance) ^ (_connectorWeight / 1000000) - 1)",
        "params": {
          "_connectorBalance": "total connector balance",
          "_connectorWeight": "connector weight, represented in ppm, 1-1000000",
          "_depositAmount": "deposit amount, in connector token",
          "_supply": "token total supply"
        },
        "return": "purchase return amount"
      },
      "calculateSaleReturn(uint256,uint256,uint32,uint256)": {
        "details": "given a token supply, connector balance, weight and a sell amount (in the main token), calculates the return for a given conversion (in the connector token)   * Formula: Return = _connectorBalance * (1 - (1 - _sellAmount / _supply) ^ (1 / (_connectorWeight / 1000000)))",
        "params": {
          "_connectorBalance": "total connector",
          "_connectorWeight": "constant connector Weight, represented in ppm, 1-1000000",
          "_sellAmount": "sell amount, in the token itself",
          "_supply": "token total supply"
        },
        "return": "sale return amount"
      }
    },
    "title": "Bancor formula by Bancor"
  },
  "userdoc": {
    "methods": {}
  }
}