{
  "contractName": "CurveBondedToken",
  "abi": [
    {
      "constant": false,
      "inputs": [
        {
          "name": "spender",
          "type": "address"
        },
        {
          "name": "value",
          "type": "uint256"
        }
      ],
      "name": "approve",
      "outputs": [
        {
          "name": "",
          "type": "bool"
        }
      ],
      "payable": false,
      "stateMutability": "nonpayable",
      "type": "function"
    },
    {
      "constant": true,
      "inputs": [],
      "name": "reserveRatio",
      "outputs": [
        {
          "name": "",
          "type": "uint256"
        }
      ],
      "payable": false,
      "stateMutability": "view",
      "type": "function"
    },
    {
      "constant": true,
      "inputs": [],
      "name": "totalSupply",
      "outputs": [
        {
          "name": "",
          "type": "uint256"
        }
      ],
      "payable": false,
      "stateMutability": "view",
      "type": "function"
    },
    {
      "constant": false,
      "inputs": [
        {
          "name": "sender",
          "type": "address"
        },
        {
          "name": "recipient",
          "type": "address"
        },
        {
          "name": "amount",
          "type": "uint256"
        }
      ],
      "name": "transferFrom",
      "outputs": [
        {
          "name": "",
          "type": "bool"
        }
      ],
      "payable": false,
      "stateMutability": "nonpayable",
      "type": "function"
    },
    {
      "constant": true,
      "inputs": [
        {
          "name": "_supply",
          "type": "uint256"
        },
        {
          "name": "_connectorBalance",
          "type": "uint256"
        },
        {
          "name": "_connectorWeight",
          "type": "uint32"
        },
        {
          "name": "_depositAmount",
          "type": "uint256"
        }
      ],
      "name": "calculatePurchaseReturn",
      "outputs": [
        {
          "name": "",
          "type": "uint256"
        }
      ],
      "payable": false,
      "stateMutability": "view",
      "type": "function"
    },
    {
      "constant": false,
      "inputs": [
        {
          "name": "spender",
          "type": "address"
        },
        {
          "name": "addedValue",
          "type": "uint256"
        }
      ],
      "name": "increaseAllowance",
      "outputs": [
        {
          "name": "",
          "type": "bool"
        }
      ],
      "payable": false,
      "stateMutability": "nonpayable",
      "type": "function"
    },
    {
      "constant": true,
      "inputs": [
        {
          "name": "_supply",
          "type": "uint256"
        },
        {
          "name": "_connectorBalance",
          "type": "uint256"
        },
        {
          "name": "_connectorWeight",
          "type": "uint32"
        },
        {
          "name": "_sellAmount",
          "type": "uint256"
        }
      ],
      "name": "calculateSaleReturn",
      "outputs": [
        {
          "name": "",
          "type": "uint256"
        }
      ],
      "payable": false,
      "stateMutability": "view",
      "type": "function"
    },
    {
      "constant": true,
      "inputs": [],
      "name": "version",
      "outputs": [
        {
          "name": "",
          "type": "string"
        }
      ],
      "payable": false,
      "stateMutability": "view",
      "type": "function"
    },
    {
      "constant": true,
      "inputs": [
        {
          "name": "account",
          "type": "address"
        }
      ],
      "name": "balanceOf",
      "outputs": [
        {
          "name": "",
          "type": "uint256"
        }
      ],
      "payable": false,
      "stateMutability": "view",
      "type": "function"
    },
    {
      "constant": false,
      "inputs": [],
      "name": "renounceOwnership",
      "outputs": [],
      "payable": false,
      "stateMutability": "nonpayable",
      "type": "function"
    },
    {
      "constant": true,
      "inputs": [],
      "name": "owner",
      "outputs": [
        {
          "name": "",
          "type": "address"
        }
      ],
      "payable": false,
      "stateMutability": "view",
      "type": "function"
    },
    {
      "constant": true,
      "inputs": [],
      "name": "isOwner",
      "outputs": [
        {
          "name": "",
          "type": "bool"
        }
      ],
      "payable": false,
      "stateMutability": "view",
      "type": "function"
    },
    {
      "constant": true,
      "inputs": [],
      "name": "poolBalance",
      "outputs": [
        {
          "name": "",
          "type": "uint256"
        }
      ],
      "payable": false,
      "stateMutability": "view",
      "type": "function"
    },
    {
      "constant": false,
      "inputs": [
        {
          "name": "spender",
          "type": "address"
        },
        {
          "name": "subtractedValue",
          "type": "uint256"
        }
      ],
      "name": "decreaseAllowance",
      "outputs": [
        {
          "name": "",
          "type": "bool"
        }
      ],
      "payable": false,
      "stateMutability": "nonpayable",
      "type": "function"
    },
    {
      "constant": false,
      "inputs": [
        {
          "name": "recipient",
          "type": "address"
        },
        {
          "name": "amount",
          "type": "uint256"
        }
      ],
      "name": "transfer",
      "outputs": [
        {
          "name": "",
          "type": "bool"
        }
      ],
      "payable": false,
      "stateMutability": "nonpayable",
      "type": "function"
    },
    {
      "constant": true,
      "inputs": [
        {
          "name": "owner",
          "type": "address"
        },
        {
          "name": "spender",
          "type": "address"
        }
      ],
      "name": "allowance",
      "outputs": [
        {
          "name": "",
          "type": "uint256"
        }
      ],
      "payable": false,
      "stateMutability": "view",
      "type": "function"
    },
    {
      "constant": false,
      "inputs": [
        {
          "name": "newOwner",
          "type": "address"
        }
      ],
      "name": "transferOwnership",
      "outputs": [],
      "payable": false,
      "stateMutability": "nonpayable",
      "type": "function"
    },
    {
      "constant": true,
      "inputs": [],
      "name": "scale",
      "outputs": [
        {
          "name": "",
          "type": "uint256"
        }
      ],
      "payable": false,
      "stateMutability": "view",
      "type": "function"
    },
    {
      "inputs": [
        {
          "name": "_reserveRatio",
          "type": "uint256"
        }
      ],
      "payable": false,
      "stateMutability": "nonpayable",
      "type": "constructor"
    },
    {
      "anonymous": false,
      "inputs": [
        {
          "indexed": true,
          "name": "from",
          "type": "address"
        },
        {
          "indexed": true,
          "name": "to",
          "type": "address"
        },
        {
          "indexed": false,
          "name": "value",
          "type": "uint256"
        }
      ],
      "name": "Transfer",
      "type": "event"
    },
    {
      "anonymous": false,
      "inputs": [
        {
          "indexed": true,
          "name": "owner",
          "type": "address"
        },
        {
          "indexed": true,
          "name": "spender",
          "type": "address"
        },
        {
          "indexed": false,
          "name": "value",
          "type": "uint256"
        }
      ],
      "name": "Approval",
      "type": "event"
    },
    {
      "anonymous": false,
      "inputs": [
        {
          "indexed": true,
          "name": "previousOwner",
          "type": "address"
        },
        {
          "indexed": true,
          "name": "newOwner",
          "type": "address"
        }
      ],
      "name": "OwnershipTransferred",
      "type": "event"
    },
    {
      "anonymous": false,
      "inputs": [
        {
          "indexed": true,
          "name": "sender",
          "type": "address"
        },
        {
          "indexed": false,
          "name": "amount",
          "type": "uint256"
        },
        {
          "indexed": false,
          "name": "deposit",
          "type": "uint256"
        }
      ],
      "name": "CurvedMint",
      "type": "event"
    },
    {
      "anonymous": false,
      "inputs": [
        {
          "indexed": true,
          "name": "sender",
          "type": "address"
        },
        {
          "indexed": false,
          "name": "amount",
          "type": "uint256"
        },
        {
          "indexed": false,
          "name": "reimbursement",
          "type": "uint256"
        }
      ],
      "name": "CurvedBurn",
      "type": "event"
    },
    {
      "constant": true,
      "inputs": [
        {
          "name": "_amount",
          "type": "uint256"
        }
      ],
      "name": "calculateCurvedMintReturn",
      "outputs": [
        {
          "name": "mintAmount",
          "type": "uint256"
        }
      ],
      "payable": false,
      "stateMutability": "view",
      "type": "function"
    },
    {
      "constant": true,
      "inputs": [
        {
          "name": "_amount",
          "type": "uint256"
        }
      ],
      "name": "calculateCurvedBurnReturn",
      "outputs": [
        {
          "name": "burnAmount",
          "type": "uint256"
        }
      ],
      "payable": false,
      "stateMutability": "view",
      "type": "function"
    }
  ],
  "bytecode": "0x60806040526040805190810160405280600381526020017f302e330000000000000000000000000000000000000000000000000000000000815250600090805190602001906200005192919062001417565b50600180556020600260006101000a81548160ff021916908360ff160217905550607f600260016101000a81548160ff021916908360ff1602179055506f800000000000000000000000000000006003557002000000000000000000000000000000006004556f03f80fe03f80fe03f80fe03f80fe03f86005556f05b9de1d10bf4103d647b0955897ba8060065570015bf0a8b1457695355fb8ac404e7a79e36007557008000000000000000000000000000000006008556040805190810160405280600381526020017f302e330000000000000000000000000000000000000000000000000000000000815250608990805190602001906200015692919062001417565b50620f4240608a60006101000a81548163ffffffff021916908363ffffffff160217905550670de0b6b3a7640000608e55608e54600102608f553480156200019d57600080fd5b506040516020806200419283398101806040526020811015620001bf57600080fd5b8101908080519060200190929190505050701c35fedd14ffffffffffffffffffffffff60096020608081101515620001f357fe5b0181905550701b0ce43b323fffffffffffffffffffffff600960216080811015156200021b57fe5b01819055507019f0028ec1ffffffffffffffffffffffff600960226080811015156200024357fe5b01819055507018ded91f0e7fffffffffffffffffffffff600960236080811015156200026b57fe5b01819055507017d8ec7f0417ffffffffffffffffffffff600960246080811015156200029357fe5b01819055507016ddc6556cdbffffffffffffffffffffff60096025608081101515620002bb57fe5b01819055507015ecf52776a1ffffffffffffffffffffff60096026608081101515620002e357fe5b01819055507015060c256cb2ffffffffffffffffffffff600960276080811015156200030b57fe5b0181905550701428a2f98d72ffffffffffffffffffffff600960286080811015156200033357fe5b01819055507013545598e5c23fffffffffffffffffffff600960296080811015156200035b57fe5b0181905550701288c4161ce1dfffffffffffffffffffff6009602a6080811015156200038357fe5b01819055507011c592761c666fffffffffffffffffffff6009602b608081101515620003ab57fe5b018190555070110a688680a757ffffffffffffffffffff6009602c608081101515620003d357fe5b0181905550701056f1b5bedf77ffffffffffffffffffff6009602d608081101515620003fb57fe5b0181905550700faadceceeff8bffffffffffffffffffff6009602e6080811015156200042357fe5b0181905550700f05dc6b27edadffffffffffffffffffff6009602f6080811015156200044b57fe5b0181905550700e67a5a25da4107fffffffffffffffffff600960306080811015156200047357fe5b0181905550700dcff115b14eedffffffffffffffffffff600960316080811015156200049b57fe5b0181905550700d3e7a392431239fffffffffffffffffff60096032608081101515620004c357fe5b0181905550700cb2ff529eb71e4fffffffffffffffffff60096033608081101515620004eb57fe5b0181905550700c2d415c3db974afffffffffffffffffff600960346080811015156200051357fe5b0181905550700bad03e7d883f69bffffffffffffffffff600960356080811015156200053b57fe5b0181905550700b320d03b2c343d5ffffffffffffffffff600960366080811015156200056357fe5b0181905550700abc25204e02828dffffffffffffffffff600960376080811015156200058b57fe5b0181905550700a4b16f74ee4bb207fffffffffffffffff60096038608081101515620005b357fe5b01819055507009deaf736ac1f569ffffffffffffffffff60096039608081101515620005db57fe5b0181905550700976bd9952c7aa957fffffffffffffffff6009603a6080811015156200060357fe5b01819055507009131271922eaa606fffffffffffffffff6009603b6080811015156200062b57fe5b01819055507008b380f3558668c46fffffffffffffffff6009603c6080811015156200065357fe5b0181905550700857ddf0117efa215bffffffffffffffff6009603d6080811015156200067b57fe5b01819055507007ffffffffffffffffffffffffffffffff6009603e608081101515620006a357fe5b01819055507007abbf6f6abb9d087fffffffffffffffff6009603f608081101515620006cb57fe5b018190555070075af62cbac95f7dfa7fffffffffffffff60096040608081101515620006f357fe5b018190555070070d7fb7452e187ac13fffffffffffffff600960416080811015156200071b57fe5b01819055507006c3390ecc8af379295fffffffffffffff600960426080811015156200074357fe5b018190555070067c00a3b07ffc01fd6fffffffffffffff600960436080811015156200076b57fe5b0181905550700637b647c39cbb9d3d27ffffffffffffff600960446080811015156200079357fe5b01819055507005f63b1fc104dbd39587ffffffffffffff60096045608081101515620007bb57fe5b01819055507005b771955b36e12f7235ffffffffffffff60096046608081101515620007e357fe5b018190555070057b3d49dda84556d6f6ffffffffffffff600960476080811015156200080b57fe5b018190555070054183095b2c8ececf30ffffffffffffff600960486080811015156200083357fe5b018190555070050a28be635ca2b888f77fffffffffffff600960496080811015156200085b57fe5b01819055507004d5156639708c9db33c3fffffffffffff6009604a6080811015156200088357fe5b01819055507004a23105873875bd52dfdfffffffffffff6009604b608081101515620008ab57fe5b0181905550700471649d87199aa990756fffffffffffff6009604c608081101515620008d357fe5b01819055507004429a21a029d4c1457cfbffffffffffff6009604d608081101515620008fb57fe5b0181905550700415bc6d6fb7dd71af2cb3ffffffffffff6009604e6080811015156200092357fe5b01819055507003eab73b3bbfe282243ce1ffffffffffff6009604f6080811015156200094b57fe5b01819055507003c1771ac9fb6b4c18e229ffffffffffff600960506080811015156200097357fe5b0181905550700399e96897690418f785257fffffffffff600960516080811015156200099b57fe5b0181905550700373fc456c53bb779bf0ea9fffffffffff60096052608081101515620009c357fe5b018190555070034f9e8e490c48e67e6ab8bfffffffffff60096053608081101515620009eb57fe5b018190555070032cbfd4a7adc790560b3337ffffffffff6009605460808110151562000a1357fe5b018190555070030b50570f6e5d2acca94613ffffffffff6009605560808110151562000a3b57fe5b01819055507002eb40f9f620fda6b56c2861ffffffffff6009605660808110151562000a6357fe5b01819055507002cc8340ecb0d0f520a6af58ffffffffff6009605760808110151562000a8b57fe5b01819055507002af09481380a0a35cf1ba02ffffffffff6009605860808110151562000ab357fe5b0181905550700292c5bdd3b92ec810287b1b3fffffffff6009605960808110151562000adb57fe5b0181905550700277abdcdab07d5a77ac6d6b9fffffffff6009605a60808110151562000b0357fe5b018190555070025daf6654b1eaa55fd64df5efffffffff6009605b60808110151562000b2b57fe5b0181905550700244c49c648baa98192dce88b7ffffffff6009605c60808110151562000b5357fe5b018190555070022ce03cd5619a311b2471268bffffffff6009605d60808110151562000b7b57fe5b0181905550700215f77c045fbe885654a44a0fffffffff6009605e60808110151562000ba357fe5b01819055507001ffffffffffffffffffffffffffffffff6009605f60808110151562000bcb57fe5b01819055507001eaefdbdaaee7421fc4d3ede5ffffffff6009606060808110151562000bf357fe5b01819055507001d6bd8b2eb257df7e8ca57b09bfffffff6009606160808110151562000c1b57fe5b01819055507001c35fedd14b861eb0443f7f133fffffff6009606260808110151562000c4357fe5b01819055507001b0ce43b322bcde4a56e8ada5afffffff6009606360808110151562000c6b57fe5b018190555070019f0028ec1fff007f5a195a39dfffffff6009606460808110151562000c9357fe5b018190555070018ded91f0e72ee74f49b15ba527ffffff6009606560808110151562000cbb57fe5b018190555070017d8ec7f04136f4e5615fd41a63ffffff6009606660808110151562000ce357fe5b018190555070016ddc6556cdb84bdc8d12d22e6fffffff6009606760808110151562000d0b57fe5b018190555070015ecf52776a1155b5bd8395814f7fffff6009606860808110151562000d3357fe5b018190555070015060c256cb23b3b3cc3754cf40ffffff6009606960808110151562000d5b57fe5b01819055507001428a2f98d728ae223ddab715be3fffff6009606a60808110151562000d8357fe5b018190555070013545598e5c23276ccf0ede68034fffff6009606b60808110151562000dab57fe5b01819055507001288c4161ce1d6f54b7f61081194fffff6009606c60808110151562000dd357fe5b018190555070011c592761c666aa641d5a01a40f17ffff6009606d60808110151562000dfb57fe5b0181905550700110a688680a7530515f3e6e6cfdcdffff6009606e60808110151562000e2357fe5b01819055507001056f1b5bedf75c6bcb2ce8aed428ffff6009606f60808110151562000e4b57fe5b01819055506ffaadceceeff8a0890f3875f008277fff6009607060808110151562000e7257fe5b01819055506ff05dc6b27edad306388a600f6ba0bfff6009607160808110151562000e9957fe5b01819055506fe67a5a25da41063de1495d5b18cdbfff6009607260808110151562000ec057fe5b01819055506fdcff115b14eedde6fc3aa5353f2e4fff6009607360808110151562000ee757fe5b01819055506fd3e7a3924312399f9aae2e0f868f8fff6009607460808110151562000f0e57fe5b01819055506fcb2ff529eb71e41582cccd5a1ee26fff6009607560808110151562000f3557fe5b01819055506fc2d415c3db974ab32a51840c0b67edff6009607660808110151562000f5c57fe5b01819055506fbad03e7d883f69ad5b0a186184e06bff6009607760808110151562000f8357fe5b01819055506fb320d03b2c343d4829abd6075f0cc5ff6009607860808110151562000faa57fe5b01819055506fabc25204e02828d73c6e80bcdb1a95bf6009607960808110151562000fd157fe5b01819055506fa4b16f74ee4bb2040a1ec6c15fbbf2df6009607a60808110151562000ff857fe5b01819055506f9deaf736ac1f569deb1b5ae3f36c130f6009607b6080811015156200101f57fe5b01819055506f976bd9952c7aa957f5937d790ef650376009607c6080811015156200104657fe5b01819055506f9131271922eaa6064b73a22d0bd4f2bf6009607d6080811015156200106d57fe5b01819055506f8b380f3558668c46c91c49a2f8e967b96009607e6080811015156200109457fe5b01819055506f857ddf0117efa215952912839f6473e66009607f608081101515620010bb57fe5b018190555033608a60046101000a81548173ffffffffffffffffffffffffffffffffffffffff021916908373ffffffffffffffffffffffffffffffffffffffff160217905550608a60049054906101000a900473ffffffffffffffffffffffffffffffffffffffff1673ffffffffffffffffffffffffffffffffffffffff16600073ffffffffffffffffffffffffffffffffffffffff167f8be0079c531659141344cd1fd0a4f28419497f9722a3daafe3b4186f6b6457e060405160405180910390a380609081905550620011a533608e54600102620011ac640100000000026401000000009004565b50620014c6565b600073ffffffffffffffffffffffffffffffffffffffff168273ffffffffffffffffffffffffffffffffffffffff161415151562001252576040517f08c379a000000000000000000000000000000000000000000000000000000000815260040180806020018281038252601f8152602001807f45524332303a206d696e7420746f20746865207a65726f20616464726573730081525060200191505060405180910390fd5b6200127781608d546200138c6401000000000262001873179091906401000000009004565b608d81905550620012df81608b60008573ffffffffffffffffffffffffffffffffffffffff1673ffffffffffffffffffffffffffffffffffffffff168152602001908152602001600020546200138c6401000000000262001873179091906401000000009004565b608b60008473ffffffffffffffffffffffffffffffffffffffff1673ffffffffffffffffffffffffffffffffffffffff168152602001908152602001600020819055508173ffffffffffffffffffffffffffffffffffffffff16600073ffffffffffffffffffffffffffffffffffffffff167fddf252ad1be2c89b69c2b068fc378daa952ba7f163c4a11628f55a4df523b3ef836040518082815260200191505060405180910390a35050565b60008082840190508381101515156200140d576040517f08c379a000000000000000000000000000000000000000000000000000000000815260040180806020018281038252601b8152602001807f536166654d6174683a206164646974696f6e206f766572666c6f77000000000081525060200191505060405180910390fd5b8091505092915050565b828054600181600116156101000203166002900490600052602060002090601f016020900481019282601f106200145a57805160ff19168380011785556200148b565b828001600101855582156200148b579182015b828111156200148a5782518255916020019190600101906200146d565b5b5090506200149a91906200149e565b5090565b620014c391905b80821115620014bf576000816000905550600101620014a5565b5090565b90565b612cbc80620014d66000396000f3fe608060405260043610610112576000357c0100000000000000000000000000000000000000000000000000000000900463ffffffff168063095ea7b3146101175780630c7d5cd81461018a57806318160ddd146101b557806323b872dd146101e057806329a00e7c1461027357806339509351146102e657806349f9b0f71461035957806354fd4d50146103cc5780636d6f1e011461045c57806370a08231146104ab578063715018a6146105105780638da5cb5b146105275780638f32d59b1461057e57806396365d44146105ad5780639a4f318b146105d8578063a457c2d714610627578063a9059cbb1461069a578063dd62ed3e1461070d578063f2fde38b14610792578063f51e181a146107e3575b600080fd5b34801561012357600080fd5b506101706004803603604081101561013a57600080fd5b81019080803573ffffffffffffffffffffffffffffffffffffffff1690602001909291908035906020019092919050505061080e565b604051808215151515815260200191505060405180910390f35b34801561019657600080fd5b5061019f610825565b6040518082815260200191505060405180910390f35b3480156101c157600080fd5b506101ca61082b565b6040518082815260200191505060405180910390f35b3480156101ec57600080fd5b506102596004803603606081101561020357600080fd5b81019080803573ffffffffffffffffffffffffffffffffffffffff169060200190929190803573ffffffffffffffffffffffffffffffffffffffff16906020019092919080359060200190929190505050610835565b604051808215151515815260200191505060405180910390f35b34801561027f57600080fd5b506102d06004803603608081101561029657600080fd5b810190808035906020019092919080359060200190929190803563ffffffff169060200190929190803590602001909291905050506108e6565b6040518082815260200191505060405180910390f35b3480156102f257600080fd5b5061033f6004803603604081101561030957600080fd5b81019080803573ffffffffffffffffffffffffffffffffffffffff16906020019092919080359060200190929190505050610a19565b604051808215151515815260200191505060405180910390f35b34801561036557600080fd5b506103b66004803603608081101561037c57600080fd5b810190808035906020019092919080359060200190929190803563ffffffff16906020019092919080359060200190929190505050610abe565b6040518082815260200191505060405180910390f35b3480156103d857600080fd5b506103e1610c20565b6040518080602001828103825283818151815260200191508051906020019080838360005b83811015610421578082015181840152602081019050610406565b50505050905090810190601f16801561044e5780820380516001836020036101000a031916815260200191505b509250505060405180910390f35b34801561046857600080fd5b506104956004803603602081101561047f57600080fd5b8101908080359060200190929190505050610cbe565b6040518082815260200191505060405180910390f35b3480156104b757600080fd5b506104fa600480360360208110156104ce57600080fd5b81019080803573ffffffffffffffffffffffffffffffffffffffff169060200190929190505050610cde565b6040518082815260200191505060405180910390f35b34801561051c57600080fd5b50610525610d27565b005b34801561053357600080fd5b5061053c610e64565b604051808273ffffffffffffffffffffffffffffffffffffffff1673ffffffffffffffffffffffffffffffffffffffff16815260200191505060405180910390f35b34801561058a57600080fd5b50610593610e8e565b604051808215151515815260200191505060405180910390f35b3480156105b957600080fd5b506105c2610ee6565b6040518082815260200191505060405180910390f35b3480156105e457600080fd5b50610611600480360360208110156105fb57600080fd5b8101908080359060200190929190505050610eec565b6040518082815260200191505060405180910390f35b34801561063357600080fd5b506106806004803603604081101561064a57600080fd5b81019080803573ffffffffffffffffffffffffffffffffffffffff16906020019092919080359060200190929190505050610f0c565b604051808215151515815260200191505060405180910390f35b3480156106a657600080fd5b506106f3600480360360408110156106bd57600080fd5b81019080803573ffffffffffffffffffffffffffffffffffffffff16906020019092919080359060200190929190505050610fb1565b604051808215151515815260200191505060405180910390f35b34801561071957600080fd5b5061077c6004803603604081101561073057600080fd5b81019080803573ffffffffffffffffffffffffffffffffffffffff169060200190929190803573ffffffffffffffffffffffffffffffffffffffff169060200190929190505050610fc8565b6040518082815260200191505060405180910390f35b34801561079e57600080fd5b506107e1600480360360208110156107b557600080fd5b81019080803573ffffffffffffffffffffffffffffffffffffffff16906020019092919050505061104f565b005b3480156107ef57600080fd5b506107f86110d7565b6040518082815260200191505060405180910390f35b600061081b3384846110dd565b6001905092915050565b60905481565b6000608d54905090565b600061084284848461135e565b6108db84336108d685608c60008a73ffffffffffffffffffffffffffffffffffffffff1673ffffffffffffffffffffffffffffffffffffffff16815260200190815260200160002060003373ffffffffffffffffffffffffffffffffffffffff1673ffffffffffffffffffffffffffffffffffffffff1681526020019081526020016000205461168890919063ffffffff16565b6110dd565b600190509392505050565b600080851180156108f75750600084115b8015610909575060008363ffffffff16115b80156109335750608a60009054906101000a900463ffffffff1663ffffffff168363ffffffff1611155b151561093e57600080fd5b60008214156109505760009050610a11565b608a60009054906101000a900463ffffffff1663ffffffff168363ffffffff1614156109a25761099b8461098d848861171390919063ffffffff16565b6117e090919063ffffffff16565b9050610a11565b60008060006109ba878661187390919063ffffffff16565b90506109da818888608a60009054906101000a900463ffffffff166118fd565b809350819450505060008260ff166109fb858b61171390919063ffffffff16565b908060020a820491505090508881039450505050505b949350505050565b6000610ab43384610aaf85608c60003373ffffffffffffffffffffffffffffffffffffffff1673ffffffffffffffffffffffffffffffffffffffff16815260200190815260200160002060008973ffffffffffffffffffffffffffffffffffffffff1673ffffffffffffffffffffffffffffffffffffffff1681526020019081526020016000205461187390919063ffffffff16565b6110dd565b6001905092915050565b60008085118015610acf5750600084115b8015610ae1575060008363ffffffff16115b8015610b0b5750608a60009054906101000a900463ffffffff1663ffffffff168363ffffffff1611155b8015610b175750848211155b1515610b2257600080fd5b6000821415610b345760009050610c18565b84821415610b4457839050610c18565b608a60009054906101000a900463ffffffff1663ffffffff168363ffffffff161415610b9657610b8f85610b81848761171390919063ffffffff16565b6117e090919063ffffffff16565b9050610c18565b60008060008488039050610bbe8882608a60009054906101000a900463ffffffff16896118fd565b80935081945050506000610bdb848961171390919063ffffffff16565b905060008360ff16899060020a029050610c1085610c02838561168890919063ffffffff16565b6117e090919063ffffffff16565b955050505050505b949350505050565b60898054600181600116156101000203166002900480601f016020809104026020016040519081016040528092919081815260200182805460018160011615610100020316600290048015610cb65780601f10610c8b57610100808354040283529160200191610cb6565b820191906000526020600020905b815481529060010190602001808311610c9957829003601f168201915b505050505081565b6000610cd7610ccb61082b565b608f5460905485610abe565b9050919050565b6000608b60008373ffffffffffffffffffffffffffffffffffffffff1673ffffffffffffffffffffffffffffffffffffffff168152602001908152602001600020549050919050565b610d2f610e8e565b1515610da3576040517f08c379a00000000000000000000000000000000000000000000000000000000081526004018080602001828103825260208152602001807f4f776e61626c653a2063616c6c6572206973206e6f7420746865206f776e657281525060200191505060405180910390fd5b600073ffffffffffffffffffffffffffffffffffffffff16608a60049054906101000a900473ffffffffffffffffffffffffffffffffffffffff1673ffffffffffffffffffffffffffffffffffffffff167f8be0079c531659141344cd1fd0a4f28419497f9722a3daafe3b4186f6b6457e060405160405180910390a36000608a60046101000a81548173ffffffffffffffffffffffffffffffffffffffff021916908373ffffffffffffffffffffffffffffffffffffffff160217905550565b6000608a60049054906101000a900473ffffffffffffffffffffffffffffffffffffffff16905090565b6000608a60049054906101000a900473ffffffffffffffffffffffffffffffffffffffff1673ffffffffffffffffffffffffffffffffffffffff163373ffffffffffffffffffffffffffffffffffffffff1614905090565b608f5481565b6000610f05610ef961082b565b608f54609054856108e6565b9050919050565b6000610fa73384610fa285608c60003373ffffffffffffffffffffffffffffffffffffffff1673ffffffffffffffffffffffffffffffffffffffff16815260200190815260200160002060008973ffffffffffffffffffffffffffffffffffffffff1673ffffffffffffffffffffffffffffffffffffffff1681526020019081526020016000205461168890919063ffffffff16565b6110dd565b6001905092915050565b6000610fbe33848461135e565b6001905092915050565b6000608c60008473ffffffffffffffffffffffffffffffffffffffff1673ffffffffffffffffffffffffffffffffffffffff16815260200190815260200160002060008373ffffffffffffffffffffffffffffffffffffffff1673ffffffffffffffffffffffffffffffffffffffff16815260200190815260200160002054905092915050565b611057610e8e565b15156110cb576040517f08c379a00000000000000000000000000000000000000000000000000000000081526004018080602001828103825260208152602001807f4f776e61626c653a2063616c6c6572206973206e6f7420746865206f776e657281525060200191505060405180910390fd5b6110d481611a56565b50565b608e5481565b600073ffffffffffffffffffffffffffffffffffffffff168373ffffffffffffffffffffffffffffffffffffffff16141515156111a8576040517f08c379a00000000000000000000000000000000000000000000000000000000081526004018080602001828103825260248152602001807f45524332303a20617070726f76652066726f6d20746865207a65726f2061646481526020017f726573730000000000000000000000000000000000000000000000000000000081525060400191505060405180910390fd5b600073ffffffffffffffffffffffffffffffffffffffff168273ffffffffffffffffffffffffffffffffffffffff1614151515611273576040517f08c379a00000000000000000000000000000000000000000000000000000000081526004018080602001828103825260228152602001807f45524332303a20617070726f766520746f20746865207a65726f20616464726581526020017f737300000000000000000000000000000000000000000000000000000000000081525060400191505060405180910390fd5b80608c60008573ffffffffffffffffffffffffffffffffffffffff1673ffffffffffffffffffffffffffffffffffffffff16815260200190815260200160002060008473ffffffffffffffffffffffffffffffffffffffff1673ffffffffffffffffffffffffffffffffffffffff168152602001908152602001600020819055508173ffffffffffffffffffffffffffffffffffffffff168373ffffffffffffffffffffffffffffffffffffffff167f8c5be1e5ebec7d5bd14f71427d1e84f3dd0314c0f7b2291e5b200ac8c7c3b925836040518082815260200191505060405180910390a3505050565b600073ffffffffffffffffffffffffffffffffffffffff168373ffffffffffffffffffffffffffffffffffffffff1614151515611429576040517f08c379a00000000000000000000000000000000000000000000000000000000081526004018080602001828103825260258152602001807f45524332303a207472616e736665722066726f6d20746865207a65726f20616481526020017f647265737300000000000000000000000000000000000000000000000000000081525060400191505060405180910390fd5b600073ffffffffffffffffffffffffffffffffffffffff168273ffffffffffffffffffffffffffffffffffffffff16141515156114f4576040517f08c379a00000000000000000000000000000000000000000000000000000000081526004018080602001828103825260238152602001807f45524332303a207472616e7366657220746f20746865207a65726f206164647281526020017f657373000000000000000000000000000000000000000000000000000000000081525060400191505060405180910390fd5b61154681608b60008673ffffffffffffffffffffffffffffffffffffffff1673ffffffffffffffffffffffffffffffffffffffff1681526020019081526020016000205461168890919063ffffffff16565b608b60008573ffffffffffffffffffffffffffffffffffffffff1673ffffffffffffffffffffffffffffffffffffffff168152602001908152602001600020819055506115db81608b60008573ffffffffffffffffffffffffffffffffffffffff1673ffffffffffffffffffffffffffffffffffffffff1681526020019081526020016000205461187390919063ffffffff16565b608b60008473ffffffffffffffffffffffffffffffffffffffff1673ffffffffffffffffffffffffffffffffffffffff168152602001908152602001600020819055508173ffffffffffffffffffffffffffffffffffffffff168373ffffffffffffffffffffffffffffffffffffffff167fddf252ad1be2c89b69c2b068fc378daa952ba7f163c4a11628f55a4df523b3ef836040518082815260200191505060405180910390a3505050565b6000828211151515611702576040517f08c379a000000000000000000000000000000000000000000000000000000000815260040180806020018281038252601e8152602001807f536166654d6174683a207375627472616374696f6e206f766572666c6f77000081525060200191505060405180910390fd5b600082840390508091505092915050565b60008083141561172657600090506117da565b6000828402905082848281151561173957fe5b041415156117d5576040517f08c379a00000000000000000000000000000000000000000000000000000000081526004018080602001828103825260218152602001807f536166654d6174683a206d756c7469706c69636174696f6e206f766572666c6f81526020017f770000000000000000000000000000000000000000000000000000000000000081525060400191505060405180910390fd5b809150505b92915050565b60008082111515611859576040517f08c379a000000000000000000000000000000000000000000000000000000000815260040180806020018281038252601a8152602001807f536166654d6174683a206469766973696f6e206279207a65726f00000000000081525060200191505060405180910390fd5b6000828481151561186657fe5b0490508091505092915050565b60008082840190508381101515156118f3576040517f08c379a000000000000000000000000000000000000000000000000000000000815260040180806020018281038252601b8152602001807f536166654d6174683a206164646974696f6e206f766572666c6f77000000000081525060200191505060405180910390fd5b8091505092915050565b6000806004548610151561190d57fe5b848610151515611985576040517f08c379a000000000000000000000000000000000000000000000000000000000815260040180806020018281038252601c8152602001807f4261736573203c203120617265206e6f7420737570706f727465642e0000000081525060200191505060405180910390fd5b60008086600354890281151561199757fe5b0490506007548110156119b4576119ad81611be1565b91506119c0565b6119bd816120c3565b91505b60008563ffffffff168763ffffffff1684028115156119db57fe5b049050600854811015611a0d576119f1816121c3565b600260019054906101000a900460ff1694509450505050611a4d565b6000611a188261266b565b9050611a4381600260019054906101000a900460ff160360ff1683908060020a82049150508261274c565b8195509550505050505b94509492505050565b600073ffffffffffffffffffffffffffffffffffffffff168173ffffffffffffffffffffffffffffffffffffffff1614151515611b21576040517f08c379a00000000000000000000000000000000000000000000000000000000081526004018080602001828103825260268152602001807f4f776e61626c653a206e6577206f776e657220697320746865207a65726f206181526020017f646472657373000000000000000000000000000000000000000000000000000081525060400191505060405180910390fd5b8073ffffffffffffffffffffffffffffffffffffffff16608a60049054906101000a900473ffffffffffffffffffffffffffffffffffffffff1673ffffffffffffffffffffffffffffffffffffffff167f8be0079c531659141344cd1fd0a4f28419497f9722a3daafe3b4186f6b6457e060405160405180910390a380608a60046101000a81548173ffffffffffffffffffffffffffffffffffffffff021916908373ffffffffffffffffffffffffffffffffffffffff16021790555050565b6000806000905060008060006fd3094c70f034de4b96ff7d5b6f99fcd886101515611c3e576f40000000000000000000000000000000840193506fd3094c70f034de4b96ff7d5b6f99fcd86003548702811515611c3a57fe5b0495505b6fa45af1e1f40c333b3de1db4dd55f29a786101515611c8f576f20000000000000000000000000000000840193506fa45af1e1f40c333b3de1db4dd55f29a76003548702811515611c8b57fe5b0495505b6f910b022db7ae67ce76b441c27035c6a186101515611ce0576f10000000000000000000000000000000840193506f910b022db7ae67ce76b441c27035c6a16003548702811515611cdc57fe5b0495505b6f88415abbe9a76bead8d00cf112e4d4a886101515611d31576f08000000000000000000000000000000840193506f88415abbe9a76bead8d00cf112e4d4a86003548702811515611d2d57fe5b0495505b6f84102b00893f64c705e841d5d4064bd386101515611d82576f04000000000000000000000000000000840193506f84102b00893f64c705e841d5d4064bd36003548702811515611d7e57fe5b0495505b6f8204055aaef1c8bd5c3259f4822735a286101515611dd3576f02000000000000000000000000000000840193506f8204055aaef1c8bd5c3259f4822735a26003548702811515611dcf57fe5b0495505b6f810100ab00222d861931c15e39b44e9986101515611e24576f01000000000000000000000000000000840193506f810100ab00222d861931c15e39b44e996003548702811515611e2057fe5b0495505b6f808040155aabbbe9451521693554f73386101515611e74576e800000000000000000000000000000840193506f808040155aabbbe9451521693554f7336003548702811515611e7057fe5b0495505b60035486039250829150600354838402811515611e8d57fe5b04905070010000000000000000000000000000000083700100000000000000000000000000000000038302811515611ec157fe5b0484019350600354818302811515611ed557fe5b049150700200000000000000000000000000000000836faaaaaaaaaaaaaaaaaaaaaaaaaaaaaaaa038302811515611f0857fe5b0484019350600354818302811515611f1c57fe5b049150700300000000000000000000000000000000836f99999999999999999999999999999999038302811515611f4f57fe5b0484019350600354818302811515611f6357fe5b049150700400000000000000000000000000000000836f92492492492492492492492492492492038302811515611f9657fe5b0484019350600354818302811515611faa57fe5b049150700500000000000000000000000000000000836f8e38e38e38e38e38e38e38e38e38e38e038302811515611fdd57fe5b0484019350600354818302811515611ff157fe5b049150700600000000000000000000000000000000836f8ba2e8ba2e8ba2e8ba2e8ba2e8ba2e8b03830281151561202457fe5b048401935060035481830281151561203857fe5b049150700700000000000000000000000000000000836f89d89d89d89d89d89d89d89d89d89d8903830281151561206b57fe5b048401935060035481830281151561207f57fe5b049150700800000000000000000000000000000000836f888888888888888888888888888888880383028115156120b257fe5b048401935083945050505050919050565b60008060009050600083905070010000000000000000000000000000000081101515612120576000612101600354838115156120fb57fe5b04612bf0565b90508060ff1682908060020a820491505091506003548160ff16029250505b6003548111156121a8576000600260019054906101000a900460ff1690505b60008160ff1611156121a65760035482830281151561215a57fe5b0491507001000000000000000000000000000000008210151561219a57600182908060020a820491505091506001810360ff166001549060020a02830192505b8060019003905061213f565b505b60065460055483028115156121b957fe5b0492505050919050565b600080600090506000806f10000000000000000000000000000000858115156121e857fe5b0691508190506003548282028115156121fd57fe5b0490506710e1b3be415a000081028301925060035482820281151561221e57fe5b0490506705a0913f6b1e000081028301925060035482820281151561223f57fe5b049050670168244fdac7800081028301925060035482820281151561226057fe5b049050664807432bc1800081028301925060035482820281151561228057fe5b049050660c0135dca040008102830192506003548282028115156122a057fe5b0490506601b707b1cdc0008102830192506003548282028115156122c057fe5b0490506536e0f639b8008102830192506003548282028115156122df57fe5b049050650618fee9f8008102830192506003548282028115156122fe57fe5b049050649c197dcc0081028301925060035482820281151561231c57fe5b049050640e30dce40081028301925060035482820281151561233a57fe5b04905064012ebd130081028301925060035482820281151561235857fe5b0490506317499f0081028301925060035482820281151561237557fe5b0490506301a9d48081028301925060035482820281151561239257fe5b049050621c63808102830192506003548282028115156123ae57fe5b0490506201c6388102830192506003548282028115156123ca57fe5b049050611ab88102830192506003548282028115156123e557fe5b04905061017c81028301925060035482820281151561240057fe5b049050601481028301925060035482820281151561241a57fe5b0490506001810283019250600354826721c3677c82b400008581151561243c57fe5b040101925060006f1000000000000000000000000000000086161415156124905770018ebef9eac820ae8682b9793ac6d1e7767001c3d6a24ed82218787d624d3e5eba95f9840281151561248c57fe5b0492505b60006f2000000000000000000000000000000086161415156124df577001368b2fc6f9609fe7aceb46aa619baed470018ebef9eac820ae8682b9793ac6d1e77884028115156124db57fe5b0492505b60006f40000000000000000000000000000000861614151561252d576fbc5ab1b16779be3575bd8f0520a9f21f7001368b2fc6f9609fe7aceb46aa619baed5840281151561252957fe5b0492505b60006f80000000000000000000000000000000861614151561257a576f454aaa8efe072e7f6ddbab84b40a55c96fbc5ab1b16779be3575bd8f0520a9f21e840281151561257657fe5b0492505b600070010000000000000000000000000000000086161415156125c8576f0960aadc109e7a3bf4578099615711ea6f454aaa8efe072e7f6ddbab84b40a55c584028115156125c457fe5b0492505b60007002000000000000000000000000000000008616141515612615576e2bf84208204f5977f9a8cf01fdce3d6f0960aadc109e7a3bf4578099615711d7840281151561261157fe5b0492505b60007004000000000000000000000000000000008616141515612660576d03c6ab775dd0b95b4cbee7e65d116e2bf84208204f5977f9a8cf01fdc307840281151561265c57fe5b0492505b829350505050919050565b600080600260009054906101000a900460ff1690506000600260019054906101000a900460ff1690505b8060ff166001830160ff1610156126ea576000600282840160ff168115156126b957fe5b0490508460098260ff166080811015156126cf57fe5b01541015156126e0578092506126e4565b8091505b50612695565b8360098260ff166080811015156126fd57fe5b0154101515612710578092505050612747565b8360098360ff1660808110151561272357fe5b0154101515612736578192505050612747565b6000151561274057fe5b6000925050505b919050565b60008083905060008090508360ff16858302908060020a820491505091506f03442c4e6074a82f1797f72ac00000008202810190508360ff16858302908060020a820491505091506f0116b96f757c380fb287fd0e400000008202810190508360ff16858302908060020a820491505091506e45ae5bdd5f0e03eca1ff43900000008202810190508360ff16858302908060020a820491505091506e0defabf91302cd95b9ffda500000008202810190508360ff16858302908060020a820491505091506e02529ca9832b22439efff9b80000008202810190508360ff16858302908060020a820491505091506d54f1cf12bd04e516b6da880000008202810190508360ff16858302908060020a820491505091506d0a9e39e257a09ca2d6db510000008202810190508360ff16858302908060020a820491505091506d012e066e7b839fa050c3090000008202810190508360ff16858302908060020a820491505091506c1e33d7d926c329a1ad1a8000008202810190508360ff16858302908060020a820491505091506c02bee513bdb4a6b19b5f8000008202810190508360ff16858302908060020a820491505091506b3a9316fa79b88eccf2a000008202810190508360ff16858302908060020a820491505091506b048177ebe1fa8123752000008202810190508360ff16858302908060020a820491505091506a5263fe90242dcbacf000008202810190508360ff16858302908060020a820491505091506a057e22099c030d941000008202810190508360ff16858302908060020a820491505091506957e22099c030d94100008202810190508360ff16858302908060020a8204915050915069052b6b545699763100008202810190508360ff16858302908060020a82049150509150684985f67696bf7480008202810190508360ff16858302908060020a820491505091506803dea12ea99e4980008202810190508360ff16858302908060020a820491505091506731880f2214b6e0008202810190508360ff16858302908060020a8204915050915067025bcff56eb360008202810190508360ff16858302908060020a82049150509150661b722e10ab10008202810190508360ff16858302908060020a820491505091506601317c700770008202810190508360ff16858302908060020a82049150509150650cba84aafa008202810190508360ff16858302908060020a820491505091506482573a0a008202810190508360ff16858302908060020a820491505091506405035ad9008202810190508360ff16858302908060020a82049150509150632f881b008202810190508360ff16858302908060020a820491505091506301b293408202810190508360ff16858302908060020a82049150509150620efc408202810190508360ff16858302908060020a82049150509150617fe08202810190508360ff16858302908060020a820491505091506104208202810190508360ff16858302908060020a8204915050915060218202810190508360ff16858302908060020a8204915050915060018202810190508360ff166001549060020a02856f0688589cc0e9505e2f2fee558000000083811515612be357fe5b0401019250505092915050565b600080600090506000839050610100811015612c2f575b6001811115612c2a57600181908060020a82049150509050600182019150612c07565b612c86565b6000608090505b60008160ff161115612c84578060ff166001549060020a0282101515612c6d578060ff1682908060020a8204915050915080831792505b60018160ff16908060020a82049150509050612c36565b505b819250505091905056fea165627a7a723058209178a8edbdb43379b49bfd3b4ba2f6fa163726dea0bf0f46f688c392dc704d9b0029",
  "source": "pragma solidity ^0.5.0;\n\nimport \"openzeppelin-solidity/contracts/token/ERC20/ERC20.sol\";\nimport \"openzeppelin-solidity/contracts/ownership/Ownable.sol\";\nimport \"openzeppelin-solidity/contracts/math/SafeMath.sol\";\n\nimport \"./Interface/IBondingCurve.sol\";\nimport \"./BancorFormula.sol\";\nimport \"./MaxGasPrice.sol\";\n\ncontract CurveBondedToken is IBondingCurve, BancorFormula, Ownable, ERC20 {\n    using SafeMath for uint256;\n\n    // Use the same decimal places as ether.\n    uint256 public scale = 10**18;\n    uint256 public poolBalance = 1 * scale;\n    uint256 public reserveRatio;\n\n    constructor(uint256 _reserveRatio) public {\n        reserveRatio = _reserveRatio;\n        _mint(msg.sender, 1 * scale);\n    }\n\n    function calculateCurvedMintReturn(uint256 _amount)\n        public\n        view\n        returns (uint256 mintAmount)\n    {\n        return\n            calculatePurchaseReturn(\n                totalSupply(),\n                poolBalance,\n                uint32(reserveRatio),\n                _amount\n            );\n    }\n\n    function calculateCurvedBurnReturn(uint256 _amount)\n        public\n        view\n        returns (uint256 burnAmount)\n    {\n        return\n            calculateSaleReturn(\n                totalSupply(),\n                poolBalance,\n                uint32(reserveRatio),\n                _amount\n            );\n    }\n\n    modifier validMint(uint256 _amount) {\n        require(_amount > 0, \"Amount must be non-zero!\");\n        _;\n    }\n\n    modifier validBurn(uint256 _amount) {\n        require(_amount > 0, \"Amount must be non-zero!\");\n        require(\n            balanceOf(msg.sender) >= _amount,\n            \"Sender does not have enough tokens to burn.\"\n        );\n        _;\n    }\n\n    function _curvedMint(uint256 _deposit)\n        internal\n        validMint(_deposit)\n        returns (uint256)\n    {\n        uint256 amount = calculateCurvedMintReturn(_deposit);\n        _mint(msg.sender, amount);\n        poolBalance = poolBalance.add(_deposit);\n        emit CurvedMint(msg.sender, amount, _deposit);\n        return amount;\n    }\n\n    function _curvedBurn(uint256 _amount)\n        internal\n        validBurn(_amount)\n        returns (uint256)\n    {\n        uint256 reimbursement = calculateCurvedBurnReturn(_amount);\n        poolBalance = poolBalance.sub(reimbursement);\n        _burn(msg.sender, _amount);\n        emit CurvedBurn(msg.sender, _amount, reimbursement);\n        return reimbursement;\n    }\n}\n",
  "sourcePath": "/Users/michaeljcohen/Desktop/projects/micronews/contracts/CurveBondedToken.sol",
  "compiler": {
    "name": "solc",
    "version": "0.5.0+commit.1d4f565a.Emscripten.clang"
  },
  "schemaVersion": "3.0.2",
  "updatedAt": "2019-09-30T20:29:06.881Z",
  "devdoc": {
    "methods": {
      "allowance(address,address)": {
        "details": "See `IERC20.allowance`."
      },
      "approve(address,uint256)": {
        "details": "See `IERC20.approve`.     * Requirements:     * - `spender` cannot be the zero address."
      },
      "balanceOf(address)": {
        "details": "See `IERC20.balanceOf`."
      },
      "calculatePurchaseReturn(uint256,uint256,uint32,uint256)": {
        "details": "given a token supply, connector balance, weight and a deposit amount (in the connector token), calculates the return for a given conversion (in the main token)   * Formula: Return = _supply * ((1 + _depositAmount / _connectorBalance) ^ (_connectorWeight / 1000000) - 1)",
        "params": {
          "_connectorBalance": "total connector balance",
          "_connectorWeight": "connector weight, represented in ppm, 1-1000000",
          "_depositAmount": "deposit amount, in connector token",
          "_supply": "token total supply"
        },
        "return": "purchase return amount"
      },
      "calculateSaleReturn(uint256,uint256,uint32,uint256)": {
        "details": "given a token supply, connector balance, weight and a sell amount (in the main token), calculates the return for a given conversion (in the connector token)   * Formula: Return = _connectorBalance * (1 - (1 - _sellAmount / _supply) ^ (1 / (_connectorWeight / 1000000)))",
        "params": {
          "_connectorBalance": "total connector",
          "_connectorWeight": "constant connector Weight, represented in ppm, 1-1000000",
          "_sellAmount": "sell amount, in the token itself",
          "_supply": "token total supply"
        },
        "return": "sale return amount"
      },
      "decreaseAllowance(address,uint256)": {
        "details": "Atomically decreases the allowance granted to `spender` by the caller.     * This is an alternative to `approve` that can be used as a mitigation for problems described in `IERC20.approve`.     * Emits an `Approval` event indicating the updated allowance.     * Requirements:     * - `spender` cannot be the zero address. - `spender` must have allowance for the caller of at least `subtractedValue`."
      },
      "increaseAllowance(address,uint256)": {
        "details": "Atomically increases the allowance granted to `spender` by the caller.     * This is an alternative to `approve` that can be used as a mitigation for problems described in `IERC20.approve`.     * Emits an `Approval` event indicating the updated allowance.     * Requirements:     * - `spender` cannot be the zero address."
      },
      "isOwner()": {
        "details": "Returns true if the caller is the current owner."
      },
      "owner()": {
        "details": "Returns the address of the current owner."
      },
      "renounceOwnership()": {
        "details": "Leaves the contract without owner. It will not be possible to call `onlyOwner` functions anymore. Can only be called by the current owner.     * > Note: Renouncing ownership will leave the contract without an owner, thereby removing any functionality that is only available to the owner."
      },
      "totalSupply()": {
        "details": "See `IERC20.totalSupply`."
      },
      "transfer(address,uint256)": {
        "details": "See `IERC20.transfer`.     * Requirements:     * - `recipient` cannot be the zero address. - the caller must have a balance of at least `amount`."
      },
      "transferFrom(address,address,uint256)": {
        "details": "See `IERC20.transferFrom`.     * Emits an `Approval` event indicating the updated allowance. This is not required by the EIP. See the note at the beginning of `ERC20`;     * Requirements: - `sender` and `recipient` cannot be the zero address. - `sender` must have a balance of at least `value`. - the caller must have allowance for `sender`'s tokens of at least `amount`."
      },
      "transferOwnership(address)": {
        "details": "Transfers ownership of the contract to a new account (`newOwner`). Can only be called by the current owner."
      }
    }
  },
  "userdoc": {
    "methods": {}
  }
}