{
  "contractName": "Micronews",
  "abi": [
    {
      "constant": true,
      "inputs": [
        {
          "name": "",
          "type": "uint256"
        }
      ],
      "name": "posts",
      "outputs": [
        {
          "name": "id",
          "type": "uint256"
        },
        {
          "name": "channelId",
          "type": "uint256"
        },
        {
          "name": "feePeriodId",
          "type": "uint256"
        },
        {
          "name": "timestamp",
          "type": "uint256"
        },
        {
          "name": "upvotes",
          "type": "uint256"
        },
        {
          "name": "downvotes",
          "type": "uint256"
        },
        {
          "name": "content",
          "type": "string"
        },
        {
          "name": "creator",
          "type": "address"
        }
      ],
      "payable": false,
      "stateMutability": "view",
      "type": "function",
      "signature": "0x0b1e7f83"
    },
    {
      "constant": true,
      "inputs": [],
      "name": "TIME_BETWEEN_POSTS",
      "outputs": [
        {
          "name": "",
          "type": "uint256"
        }
      ],
      "payable": false,
      "stateMutability": "view",
      "type": "function",
      "signature": "0x1d5c4ee1"
    },
    {
      "constant": true,
      "inputs": [],
      "name": "postId",
      "outputs": [
        {
          "name": "",
          "type": "uint256"
        }
      ],
      "payable": false,
      "stateMutability": "view",
      "type": "function",
      "signature": "0x60a0ecda"
    },
    {
      "constant": false,
      "inputs": [],
      "name": "renounceOwnership",
      "outputs": [],
      "payable": false,
      "stateMutability": "nonpayable",
      "type": "function",
      "signature": "0x715018a6"
    },
    {
      "constant": true,
      "inputs": [],
      "name": "owner",
      "outputs": [
        {
          "name": "",
          "type": "address"
        }
      ],
      "payable": false,
      "stateMutability": "view",
      "type": "function",
      "signature": "0x8da5cb5b"
    },
    {
      "constant": true,
      "inputs": [],
      "name": "isOwner",
      "outputs": [
        {
          "name": "",
          "type": "bool"
        }
      ],
      "payable": false,
      "stateMutability": "view",
      "type": "function",
      "signature": "0x8f32d59b"
    },
    {
      "constant": true,
      "inputs": [],
      "name": "channelId",
      "outputs": [
        {
          "name": "",
          "type": "uint256"
        }
      ],
      "payable": false,
      "stateMutability": "view",
      "type": "function",
      "signature": "0xe2cee544"
    },
    {
      "constant": true,
      "inputs": [],
      "name": "RESERVE_RATIO",
      "outputs": [
        {
          "name": "",
          "type": "uint256"
        }
      ],
      "payable": false,
      "stateMutability": "view",
      "type": "function",
      "signature": "0xe37dbfd9"
    },
    {
      "constant": true,
      "inputs": [],
      "name": "creatorId",
      "outputs": [
        {
          "name": "",
          "type": "uint256"
        }
      ],
      "payable": false,
      "stateMutability": "view",
      "type": "function",
      "signature": "0xe58324ea"
    },
    {
      "constant": false,
      "inputs": [
        {
          "name": "newOwner",
          "type": "address"
        }
      ],
      "name": "transferOwnership",
      "outputs": [],
      "payable": false,
      "stateMutability": "nonpayable",
      "type": "function",
      "signature": "0xf2fde38b"
    },
    {
      "inputs": [],
      "payable": false,
      "stateMutability": "nonpayable",
      "type": "constructor",
      "signature": "constructor"
    },
    {
      "anonymous": false,
      "inputs": [
        {
          "indexed": true,
          "name": "creator",
          "type": "address"
        },
        {
          "indexed": true,
          "name": "channelId",
          "type": "uint256"
        },
        {
          "indexed": false,
          "name": "content",
          "type": "string"
        }
      ],
      "name": "PostCreated",
      "type": "event",
      "signature": "0x12a6d6e360de92ee96444e397580fa39ca65f27c25bd78a4bad6278011334fac"
    },
    {
      "anonymous": false,
      "inputs": [
        {
          "indexed": true,
          "name": "previousOwner",
          "type": "address"
        },
        {
          "indexed": true,
          "name": "newOwner",
          "type": "address"
        }
      ],
      "name": "OwnershipTransferred",
      "type": "event",
      "signature": "0x8be0079c531659141344cd1fd0a4f28419497f9722a3daafe3b4186f6b6457e0"
    },
    {
      "constant": false,
      "inputs": [
        {
          "name": "_channelId",
          "type": "uint256"
        }
      ],
      "name": "subscribeToChannel",
      "outputs": [],
      "payable": true,
      "stateMutability": "payable",
      "type": "function",
      "signature": "0x6e7b3424"
    },
    {
      "constant": false,
      "inputs": [
        {
          "name": "_channelId",
          "type": "uint256"
        }
      ],
      "name": "unsubscribeToChannel",
      "outputs": [],
      "payable": false,
      "stateMutability": "nonpayable",
      "type": "function",
      "signature": "0x8d76c428"
    },
    {
      "constant": false,
      "inputs": [
        {
          "name": "_channelId",
          "type": "uint256"
        }
      ],
      "name": "isUserSubscribedToChannel",
      "outputs": [
        {
          "name": "",
          "type": "bool"
        }
      ],
      "payable": false,
      "stateMutability": "nonpayable",
      "type": "function",
      "signature": "0xb4456c1c"
    },
    {
      "constant": false,
      "inputs": [
        {
          "name": "_channelName",
          "type": "bytes"
        }
      ],
      "name": "createChannel",
      "outputs": [],
      "payable": false,
      "stateMutability": "nonpayable",
      "type": "function",
      "signature": "0x17abcf60"
    },
    {
      "constant": false,
      "inputs": [
        {
          "name": "_creatorName",
          "type": "bytes"
        }
      ],
      "name": "registerContentCreator",
      "outputs": [],
      "payable": false,
      "stateMutability": "nonpayable",
      "type": "function",
      "signature": "0x79ab85cf"
    },
    {
      "constant": false,
      "inputs": [
        {
          "name": "_content",
          "type": "string"
        },
        {
          "name": "_channelId",
          "type": "uint256"
        }
      ],
      "name": "createPost",
      "outputs": [],
      "payable": false,
      "stateMutability": "nonpayable",
      "type": "function",
      "signature": "0x1252cb48"
    },
    {
      "constant": false,
      "inputs": [
        {
          "name": "_channelId",
          "type": "uint256"
        },
        {
          "name": "_postId",
          "type": "uint256"
        },
        {
          "name": "upvote",
          "type": "bool"
        }
      ],
      "name": "voteOnPost",
      "outputs": [],
      "payable": false,
      "stateMutability": "nonpayable",
      "type": "function",
      "signature": "0x46dbd6cd"
    },
    {
      "constant": false,
      "inputs": [
        {
          "name": "_postId",
          "type": "uint256"
        },
        {
          "name": "_channelId",
          "type": "uint256"
        }
      ],
      "name": "bookmarkPost",
      "outputs": [],
      "payable": false,
      "stateMutability": "nonpayable",
      "type": "function",
      "signature": "0x30bb7426"
    },
    {
      "constant": false,
      "inputs": [],
      "name": "closeFeePeriod",
      "outputs": [],
      "payable": false,
      "stateMutability": "nonpayable",
      "type": "function",
      "signature": "0x6ba66ab0"
    },
    {
      "constant": false,
      "inputs": [
        {
          "name": "_channelId",
          "type": "uint256"
        }
      ],
      "name": "collectEquityFees",
      "outputs": [],
      "payable": false,
      "stateMutability": "nonpayable",
      "type": "function",
      "signature": "0x82569bfd"
    },
    {
      "constant": false,
      "inputs": [
        {
          "name": "_channelId",
          "type": "uint256"
        }
      ],
      "name": "collectContentFees",
      "outputs": [],
      "payable": false,
      "stateMutability": "nonpayable",
      "type": "function",
      "signature": "0x7a5d6e3f"
    },
    {
      "constant": true,
      "inputs": [],
      "name": "getNumberOfChannels",
      "outputs": [
        {
          "name": "_num",
          "type": "uint256"
        }
      ],
      "payable": false,
      "stateMutability": "view",
      "type": "function",
      "signature": "0xf2cb7cdc"
    },
    {
      "constant": true,
      "inputs": [
        {
          "name": "_feePeriodId",
          "type": "uint256"
        },
        {
          "name": "_channelId",
          "type": "uint256"
        }
      ],
      "name": "getNumberOfPosts",
      "outputs": [
        {
          "name": "_num",
          "type": "uint256"
        }
      ],
      "payable": false,
      "stateMutability": "view",
      "type": "function",
      "signature": "0x639c75c2"
    },
    {
      "constant": true,
      "inputs": [
        {
          "name": "_postId",
          "type": "uint256"
        }
      ],
      "name": "getPostById",
      "outputs": [
        {
          "name": "_timestamp",
          "type": "uint256"
        },
        {
          "name": "_upvotes",
          "type": "uint256"
        },
        {
          "name": "_downvotes",
          "type": "uint256"
        },
        {
          "name": "_content",
          "type": "string"
        },
        {
          "name": "_creator",
          "type": "address"
        }
      ],
      "payable": false,
      "stateMutability": "view",
      "type": "function",
      "signature": "0x64e95895"
    }
  ],
  "bytecode": "0x608060405267016345785d8a00006001556702c68af0bb14000060025560016009556207a120600a556001600b556001600e5561a8c0601355600160155534801561004957600080fd5b50336000806101000a81548173ffffffffffffffffffffffffffffffffffffffff021916908373ffffffffffffffffffffffffffffffffffffffff1602179055506000809054906101000a900473ffffffffffffffffffffffffffffffffffffffff1673ffffffffffffffffffffffffffffffffffffffff16600073ffffffffffffffffffffffffffffffffffffffff167f8be0079c531659141344cd1fd0a4f28419497f9722a3daafe3b4186f6b6457e060405160405180910390a3426014819055506125d98061011c6000396000f3fe60806040526004361061013e576000357c0100000000000000000000000000000000000000000000000000000000900463ffffffff1680630b1e7f83146101435780631252cb481461025457806317abcf60146103265780631d5c4ee1146103ee57806330bb74261461041957806346dbd6cd1461045e57806360a0ecda146104af578063639c75c2146104da57806364e95895146105335780636ba66ab01461062f5780636e7b342414610646578063715018a61461067457806379ab85cf1461068b5780637a5d6e3f1461075357806382569bfd1461078e5780638d76c428146107c95780638da5cb5b146108045780638f32d59b1461085b578063b4456c1c1461088a578063e2cee544146108dd578063e37dbfd914610908578063e58324ea14610933578063f2cb7cdc1461095e578063f2fde38b14610989575b600080fd5b34801561014f57600080fd5b5061017c6004803603602081101561016657600080fd5b81019080803590602001909291905050506109da565b60405180898152602001888152602001878152602001868152602001858152602001848152602001806020018373ffffffffffffffffffffffffffffffffffffffff1673ffffffffffffffffffffffffffffffffffffffff168152602001828103825284818151815260200191508051906020019080838360005b838110156102125780820151818401526020810190506101f7565b50505050905090810190601f16801561023f5780820380516001836020036101000a031916815260200191505b50995050505050505050505060405180910390f35b34801561026057600080fd5b506103246004803603604081101561027757600080fd5b810190808035906020019064010000000081111561029457600080fd5b8201836020820111156102a657600080fd5b803590602001918460018302840111640100000000831117156102c857600080fd5b91908080601f016020809104026020016040519081016040528093929190818152602001838380828437600081840152601f19601f82011690508083019250505050505050919291929080359060200190929190505050610ada565b005b34801561033257600080fd5b506103ec6004803603602081101561034957600080fd5b810190808035906020019064010000000081111561036657600080fd5b82018360208201111561037857600080fd5b8035906020019184600183028401116401000000008311171561039a57600080fd5b91908080601f016020809104026020016040519081016040528093929190818152602001838380828437600081840152601f19601f820116905080830192505050505050509192919290505050611034565b005b3480156103fa57600080fd5b506104036110b9565b6040518082815260200191505060405180910390f35b34801561042557600080fd5b5061045c6004803603604081101561043c57600080fd5b8101908080359060200190929190803590602001909291905050506110bf565b005b34801561046a57600080fd5b506104ad6004803603606081101561048157600080fd5b810190808035906020019092919080359060200190929190803515159060200190929190505050611454565b005b3480156104bb57600080fd5b506104c461157b565b6040518082815260200191505060405180910390f35b3480156104e657600080fd5b5061051d600480360360408110156104fd57600080fd5b810190808035906020019092919080359060200190929190505050611581565b6040518082815260200191505060405180910390f35b34801561053f57600080fd5b5061056c6004803603602081101561055657600080fd5b81019080803590602001909291905050506115b2565b60405180868152602001858152602001848152602001806020018373ffffffffffffffffffffffffffffffffffffffff1673ffffffffffffffffffffffffffffffffffffffff168152602001828103825284818151815260200191508051906020019080838360005b838110156105f05780820151818401526020810190506105d5565b50505050905090810190601f16801561061d5780820380516001836020036101000a031916815260200191505b50965050505050505060405180910390f35b34801561063b57600080fd5b506106446116fc565b005b6106726004803603602081101561065c57600080fd5b81019080803590602001909291905050506118e0565b005b34801561068057600080fd5b506106896119d8565b005b34801561069757600080fd5b50610751600480360360208110156106ae57600080fd5b81019080803590602001906401000000008111156106cb57600080fd5b8201836020820111156106dd57600080fd5b803590602001918460018302840111640100000000831117156106ff57600080fd5b91908080601f016020809104026020016040519081016040528093929190818152602001838380828437600081840152601f19601f820116905080830192505050505050509192919290505050611b13565b005b34801561075f57600080fd5b5061078c6004803603602081101561077657600080fd5b8101908080359060200190929190505050611c3d565b005b34801561079a57600080fd5b506107c7600480360360208110156107b157600080fd5b8101908080359060200190929190505050611c40565b005b3480156107d557600080fd5b50610802600480360360208110156107ec57600080fd5b8101908080359060200190929190505050611e81565b005b34801561081057600080fd5b50610819611f00565b604051808273ffffffffffffffffffffffffffffffffffffffff1673ffffffffffffffffffffffffffffffffffffffff16815260200191505060405180910390f35b34801561086757600080fd5b50610870611f29565b604051808215151515815260200191505060405180910390f35b34801561089657600080fd5b506108c3600480360360208110156108ad57600080fd5b8101908080359060200190929190505050611f80565b604051808215151515815260200191505060405180910390f35b3480156108e957600080fd5b506108f2611ffa565b6040518082815260200191505060405180910390f35b34801561091457600080fd5b5061091d612000565b6040518082815260200191505060405180910390f35b34801561093f57600080fd5b50610948612006565b6040518082815260200191505060405180910390f35b34801561096a57600080fd5b5061097361200c565b6040518082815260200191505060405180910390f35b34801561099557600080fd5b506109d8600480360360208110156109ac57600080fd5b81019080803573ffffffffffffffffffffffffffffffffffffffff169060200190929190505050612019565b005b600f602052806000526040600020600091509050806000015490806001015490806002015490806003015490806004015490806005015490806006018054600181600116156101000203166002900480601f016020809104026020016040519081016040528092919081815260200182805460018160011615610100020316600290048015610aaa5780601f10610a7f57610100808354040283529160200191610aaa565b820191906000526020600020905b815481529060010190602001808311610a8d57829003601f168201915b5050505050908060070160009054906101000a900473ffffffffffffffffffffffffffffffffffffffff16905088565b6000600c60003373ffffffffffffffffffffffffffffffffffffffff1673ffffffffffffffffffffffffffffffffffffffff16815260200190815260200160002054111515610b91576040517f08c379a00000000000000000000000000000000000000000000000000000000081526004018080602001828103825260168152602001807f43726561746f72206e6f7420726567697374657265640000000000000000000081525060200191505060405180910390fd5b42601354601260003373ffffffffffffffffffffffffffffffffffffffff1673ffffffffffffffffffffffffffffffffffffffff1681526020019081526020016000205401101515610c71576040517f08c379a00000000000000000000000000000000000000000000000000000000081526004018080602001828103825260288152602001807f43726561746f72206d757374207761697420313220686f75727320626574776581526020017f656e20706f73747300000000000000000000000000000000000000000000000081525060400191505060405180910390fd5b60011515600660006015548152602001908152602001600020600083815260200190815260200160002060003373ffffffffffffffffffffffffffffffffffffffff1673ffffffffffffffffffffffffffffffffffffffff16815260200190815260200160002060009054906101000a900460ff161515141515610d83576040517f08c379a00000000000000000000000000000000000000000000000000000000081526004018080602001828103825260218152602001807f43726561746f72206e6f74207375627363726962656420746f206368616e6e6581526020017f6c0000000000000000000000000000000000000000000000000000000000000081525060400191505060405180910390fd5b610d8b61238a565b61010060405190810160405280600e548152602001838152602001601554815260200142815260200160008152602001600081526020018481526020013373ffffffffffffffffffffffffffffffffffffffff168152509050813373ffffffffffffffffffffffffffffffffffffffff167f12a6d6e360de92ee96444e397580fa39ca65f27c25bd78a4bad6278011334fac856040518080602001828103825283818151815260200191508051906020019080838360005b83811015610e5e578082015181840152602081019050610e43565b50505050905090810190601f168015610e8b5780820380516001836020036101000a031916815260200191505b509250505060405180910390a380600f6000600e548152602001908152602001600020600082015181600001556020820151816001015560408201518160020155606082015181600301556080820151816004015560a0820151816005015560c0820151816006019080519060200190610f069291906123e6565b5060e08201518160070160006101000a81548173ffffffffffffffffffffffffffffffffffffffff021916908373ffffffffffffffffffffffffffffffffffffffff1602179055509050506010600060155481526020019081526020016000206000838152602001908152602001600020600e549080600181540180825580915050906001820390600052602060002001600090919290919091505550601160003373ffffffffffffffffffffffffffffffffffffffff1673ffffffffffffffffffffffffffffffffffffffff16815260200190815260200160002060006015548152602001908152602001600020600e6000815480929190600101919050559080600181540180825580915050906001820390600052602060002001600090919290919091505550505050565b61103c612466565b606060405190810160405280600954815260200160008152602001838152509050806003600060096000815480929190600101919050558152602001908152602001600020600082015181600001556020820151816001015560408201518160020190805190602001906110b1929190612488565b509050505050565b60135481565b601554600f600084815260200190815260200160002060020154141515611174576040517f08c379a00000000000000000000000000000000000000000000000000000000081526004018080602001828103825260388152602001807f426f6f6b6d61726b7320617265206f6e6c792076616c696420666f7220706f7381526020017f747320696e2063757272656e742066656520706572696f64000000000000000081525060400191505060405180910390fd5b600560076000601554815260200190815260200160002060003373ffffffffffffffffffffffffffffffffffffffff1673ffffffffffffffffffffffffffffffffffffffff1681526020019081526020016000205410151561123e576040517f08c379a000000000000000000000000000000000000000000000000000000000815260040180806020018281038252601f8152602001807f5573657220686173206e6f20626f6f6b6d61726b732072656d61696e696e670081525060200191505060405180910390fd5b60011515600660006015548152602001908152602001600020600083815260200190815260200160002060003373ffffffffffffffffffffffffffffffffffffffff1673ffffffffffffffffffffffffffffffffffffffff16815260200190815260200160002060009054906101000a900460ff161515141515611350576040517f08c379a00000000000000000000000000000000000000000000000000000000081526004018080602001828103825260288152602001807f426f6f6b6d61726b6572206d757374206265207375627363726962656420746f81526020017f206368616e6e656c00000000000000000000000000000000000000000000000081525060400191505060405180910390fd5b60076000601554815260200190815260200160002060003373ffffffffffffffffffffffffffffffffffffffff1673ffffffffffffffffffffffffffffffffffffffff168152602001908152602001600020600081548092919060010191905055506000600f600084815260200190815260200160002060070160009054906101000a900473ffffffffffffffffffffffffffffffffffffffff16905060086000601554815260200190815260200160002060008273ffffffffffffffffffffffffffffffffffffffff1673ffffffffffffffffffffffffffffffffffffffff16815260200190815260200160002060008154809291906001019190505550505050565b8260006005600083815260200190815260200160002060003373ffffffffffffffffffffffffffffffffffffffff1673ffffffffffffffffffffffffffffffffffffffff1681526020019081526020016000205411151561151d576040517f08c379a000000000000000000000000000000000000000000000000000000000815260040180806020018281038252601b8152602001807f566f7465722069736e277420616e20657175697479206f776e6572000000000081525060200191505060405180910390fd5b811561154e57600f600084815260200190815260200160002060040160008154809291906001019190505550611575565b600f6000848152602001908152602001600020600501600081548092919060010191905055505b50505050565b600e5481565b6000601060008481526020019081526020016000206000838152602001908152602001600020805490505092915050565b600080600060606000600f600087815260200190815260200160002060030154600f600088815260200190815260200160002060040154600f600089815260200190815260200160002060050154600f60008a8152602001908152602001600020600601600f60008b815260200190815260200160002060070160009054906101000a900473ffffffffffffffffffffffffffffffffffffffff16818054600181600116156101000203166002900480601f0160208091040260200160405190810160405280929190818152602001828054600181600116156101000203166002900480156116e25780601f106116b7576101008083540402835291602001916116e2565b820191906000526020600020905b8154815290600101906020018083116116c557829003601f168201915b505050505091509450945094509450945091939590929450565b611704611f29565b1515611778576040517f08c379a00000000000000000000000000000000000000000000000000000000081526004018080602001828103825260208152602001807f4f776e61626c653a2063616c6c6572206973206e6f7420746865206f776e657281525060200191505060405180910390fd5b4261179162093a806015546120a190919063ffffffff16565b6014540111151561180a576040517f08c379a000000000000000000000000000000000000000000000000000000000815260040180806020018281038252601b8152602001807f46656520706572696f64206e6f742079657420636f6d706c657465000000000081525060200191505060405180910390fd5b60008090505b61181861200c565b8110156118cb57600061185f600261185160015460036000878152602001908152602001600020600101546120a190919063ffffffff16565b61216e90919063ffffffff16565b90508060166000601554815260200190815260200160002060008481526020019081526020016000206002018190555080601660006015548152602001908152602001600020600084815260200190815260200160002060030181905550508080600101915050611810565b50601560008154809291906001019190505550565b60015434141515611959576040517f08c379a000000000000000000000000000000000000000000000000000000000815260040180806020018281038252601f8152602001807f4d757374207061792065786163742066656520746f207375627363726962650081525060200191505060405180910390fd5b6001600660006015548152602001908152602001600020600083815260200190815260200160002060003373ffffffffffffffffffffffffffffffffffffffff1673ffffffffffffffffffffffffffffffffffffffff16815260200190815260200160002060006101000a81548160ff02191690831515021790555050565b6119e0611f29565b1515611a54576040517f08c379a00000000000000000000000000000000000000000000000000000000081526004018080602001828103825260208152602001807f4f776e61626c653a2063616c6c6572206973206e6f7420746865206f776e657281525060200191505060405180910390fd5b600073ffffffffffffffffffffffffffffffffffffffff166000809054906101000a900473ffffffffffffffffffffffffffffffffffffffff1673ffffffffffffffffffffffffffffffffffffffff167f8be0079c531659141344cd1fd0a4f28419497f9722a3daafe3b4186f6b6457e060405160405180910390a360008060006101000a81548173ffffffffffffffffffffffffffffffffffffffff021916908373ffffffffffffffffffffffffffffffffffffffff160217905550565b6000600c60003373ffffffffffffffffffffffffffffffffffffffff1673ffffffffffffffffffffffffffffffffffffffff16815260200190815260200160002054141515611bca576040517f08c379a00000000000000000000000000000000000000000000000000000000081526004018080602001828103825260168152602001807f43726561746f7220616c7265616479206578697374730000000000000000000081525060200191505060405180910390fd5b600b54600c60003373ffffffffffffffffffffffffffffffffffffffff1673ffffffffffffffffffffffffffffffffffffffff1681526020019081526020016000208190555080600d6000600b5481526020019081526020016000209080519060200190611c39929190612508565b5050565b50565b8060006005600083815260200190815260200160002060003373ffffffffffffffffffffffffffffffffffffffff1673ffffffffffffffffffffffffffffffffffffffff16815260200190815260200160002054111515611d09576040517f08c379a000000000000000000000000000000000000000000000000000000000815260040180806020018281038252601b8152602001807f566f7465722069736e277420616e20657175697479206f776e6572000000000081525060200191505060405180910390fd5b60006005600084815260200190815260200160002060003373ffffffffffffffffffffffffffffffffffffffff1673ffffffffffffffffffffffffffffffffffffffff1681526020019081526020016000205490506000600460008581526020019081526020016000205490506000816016600060016015540381526020019081526020016000206000878152602001908152602001600020600201548402811515611db157fe5b0490506001601760006001601554038152602001908152602001600020600087815260200190815260200160002060003373ffffffffffffffffffffffffffffffffffffffff1673ffffffffffffffffffffffffffffffffffffffff16815260200190815260200160002060006101000a81548160ff0219169083151502179055503373ffffffffffffffffffffffffffffffffffffffff166108fc829081150290604051600060405180830381858888f19350505050158015611e79573d6000803e3d6000fd5b505050505050565b6000600660006015548152602001908152602001600020600083815260200190815260200160002060003373ffffffffffffffffffffffffffffffffffffffff1673ffffffffffffffffffffffffffffffffffffffff16815260200190815260200160002060006101000a81548160ff02191690831515021790555050565b60008060009054906101000a900473ffffffffffffffffffffffffffffffffffffffff16905090565b60008060009054906101000a900473ffffffffffffffffffffffffffffffffffffffff1673ffffffffffffffffffffffffffffffffffffffff163373ffffffffffffffffffffffffffffffffffffffff1614905090565b6000600660006015548152602001908152602001600020600083815260200190815260200160002060003373ffffffffffffffffffffffffffffffffffffffff1673ffffffffffffffffffffffffffffffffffffffff16815260200190815260200160002060009054906101000a900460ff169050919050565b60095481565b600a5481565b600b5481565b6000600160095403905090565b612021611f29565b1515612095576040517f08c379a00000000000000000000000000000000000000000000000000000000081526004018080602001828103825260208152602001807f4f776e61626c653a2063616c6c6572206973206e6f7420746865206f776e657281525060200191505060405180910390fd5b61209e81612201565b50565b6000808314156120b45760009050612168565b600082840290508284828115156120c757fe5b04141515612163576040517f08c379a00000000000000000000000000000000000000000000000000000000081526004018080602001828103825260218152602001807f536166654d6174683a206d756c7469706c69636174696f6e206f766572666c6f81526020017f770000000000000000000000000000000000000000000000000000000000000081525060400191505060405180910390fd5b809150505b92915050565b600080821115156121e7576040517f08c379a000000000000000000000000000000000000000000000000000000000815260040180806020018281038252601a8152602001807f536166654d6174683a206469766973696f6e206279207a65726f00000000000081525060200191505060405180910390fd5b600082848115156121f457fe5b0490508091505092915050565b600073ffffffffffffffffffffffffffffffffffffffff168173ffffffffffffffffffffffffffffffffffffffff16141515156122cc576040517f08c379a00000000000000000000000000000000000000000000000000000000081526004018080602001828103825260268152602001807f4f776e61626c653a206e6577206f776e657220697320746865207a65726f206181526020017f646472657373000000000000000000000000000000000000000000000000000081525060400191505060405180910390fd5b8073ffffffffffffffffffffffffffffffffffffffff166000809054906101000a900473ffffffffffffffffffffffffffffffffffffffff1673ffffffffffffffffffffffffffffffffffffffff167f8be0079c531659141344cd1fd0a4f28419497f9722a3daafe3b4186f6b6457e060405160405180910390a3806000806101000a81548173ffffffffffffffffffffffffffffffffffffffff021916908373ffffffffffffffffffffffffffffffffffffffff16021790555050565b6101006040519081016040528060008152602001600081526020016000815260200160008152602001600081526020016000815260200160608152602001600073ffffffffffffffffffffffffffffffffffffffff1681525090565b828054600181600116156101000203166002900490600052602060002090601f016020900481019282601f1061242757805160ff1916838001178555612455565b82800160010185558215612455579182015b82811115612454578251825591602001919060010190612439565b5b5090506124629190612588565b5090565b6060604051908101604052806000815260200160008152602001606081525090565b828054600181600116156101000203166002900490600052602060002090601f016020900481019282601f106124c957805160ff19168380011785556124f7565b828001600101855582156124f7579182015b828111156124f65782518255916020019190600101906124db565b5b5090506125049190612588565b5090565b828054600181600116156101000203166002900490600052602060002090601f016020900481019282601f1061254957805160ff1916838001178555612577565b82800160010185558215612577579182015b8281111561257657825182559160200191906001019061255b565b5b5090506125849190612588565b5090565b6125aa91905b808211156125a657600081600090555060010161258e565b5090565b9056fea165627a7a7230582007527835b46160b85d0714ea1c9b3ebc702dadd74691aa856928bc988ab16a790029",
  "source": "pragma solidity ^0.5.0;\n\nimport \"openzeppelin-solidity/contracts/math/SafeMath.sol\";\nimport \"openzeppelin-solidity/contracts/ownership/Ownable.sol\";\n\ncontract Micronews is Ownable {\n    using SafeMath for uint256;\n\n    struct Channel {\n        uint256 id;\n        uint256 subscribers;\n        bytes name;\n    }\n\n    uint256 CHANNEL_SUBSCRIPTION_FEE = 0.1 ether;\n    uint256 CHANNEL_INITIATION_FEE = 0.2 ether;\n\n    uint256 constant WEEK_IN_SECONDS = 86400 * 7;\n    uint256 constant MAX_BOOKMARKS_PER_PERIOD = 5;\n\n    mapping(uint256 => Channel) channels;\n\n    mapping(uint256 => uint256) channelIdToTotalEquity;\n    /* channelId => total tokens */\n\n    mapping(uint256 => mapping(address => uint256)) channelIdToUserEquity;\n    /* channelId => user => tokens owned */\n\n    mapping(uint256 => mapping(uint256 => mapping(address => bool))) channelIdToUserSubscriptionStatus;\n    /* feePeriodId => channelId => user => subscriptionStatusBool */\n\n    mapping(uint256 => mapping(address => uint256)) userBookmarksPerPeriod;\n    mapping(uint256 => mapping(address => uint256)) receivedBookmarksPerPeriod;\n    /* feePeriodId => user => number of bookmarks */\n\n    uint256 public channelId = 1;\n    uint256 public RESERVE_RATIO = 500000; // 500k / 1 million = 50%\n\n    uint256 public creatorId = 1;\n    mapping(address => uint256) creatorAddressToId;\n    mapping(uint256 => bytes) creatorIdToName;\n\n    uint256 public postId = 1;\n    mapping(uint256 => Post) public posts;\n    mapping(uint256 => mapping(uint256 => uint256[])) channelPostsByFeePeriod;\n    /* feePeriodId => channelId => posts */\n\n    mapping(address => mapping(uint256 => uint256[])) creatorToPostsByFeePeriod;\n\n    mapping(address => uint256) creatorToLastPosted;\n    uint256 public TIME_BETWEEN_POSTS = 12 hours;\n\n    uint256 genesisTimestamp;\n\n    constructor() public {\n        genesisTimestamp = block.timestamp;\n    }\n\n    struct Post {\n        uint256 id;\n        uint256 channelId;\n        uint256 feePeriodId;\n        uint256 timestamp;\n        uint256 upvotes;\n        uint256 downvotes;\n        string content;\n        address creator;\n    }\n\n    /* Fee period id is universal but contract calculates distribution by channel */\n    struct FeePeriod {\n        uint256 id;\n        uint256 channelId;\n        uint256 valueForEquityDistribution;\n        uint256 valueForCreatorDistribution;\n    }\n\n    uint256 currentFeePeriod = 1;\n\n    mapping(uint256 => mapping(uint256 => FeePeriod)) feePeriods;\n    /* feePeriodId => channelId => FeePeriod */\n\n    mapping(uint256 => mapping(uint256 => mapping(address => bool))) periodFeesCollected;\n    /* feePeriodId => channelId => owner address => boolean */\n\n    event PostCreated(\n        address indexed creator,\n        uint256 indexed channelId,\n        string content\n    );\n\n    /* ------ BONDING CURVE FUNCTIONS ------ */\n\n    /* \n      @dev call bonded curve mint function and register channel equity ownership\n      @param _channelId to call channel CBT contract\n     */\n\n    /* Bonding curve mint tokens */\n    /*    function mintEquity(uint256 _channelId) public payable {\n        require(msg.value > 0, \"Must transfer funds to mint equity\");\n         \n          uint256 amount = channelIdToContract[_channelId].mint.value(\n            msg.value\n        )();  \n       \n\n        channelIdToTotalEquity[_channelId] = channelIdToTotalEquity[_channelId]\n            .add(amount);\n        channelIdToUserEquity[_channelId][msg\n            .sender] = channelIdToUserEquity[_channelId][msg.sender].add(\n            amount\n        );\n    } */\n\n    /* \n      @dev call bonded curve burn function and register decrease in channel equity ownership\n      @param _channelId to call channel CBT contract\n      @param _burnAmount equity to sell\n     */\n\n    /* Bonding curve burn token */\n    /*   function burnEquity(uint256 _channelId, uint256 _burnAmount) public {\n        channelIdToContract[_channelId].burn(_burnAmount);\n\n        channelIdToTotalEquity[_channelId] = channelIdToTotalEquity[_channelId]\n            .sub(_burnAmount);\n\n        channelIdToUserEquity[_channelId][msg\n            .sender] = channelIdToUserEquity[_channelId][msg.sender].sub(\n            _burnAmount\n        );\n    } */\n\n    /* ------ SUBSCRIPTION FUNCTIONS ------ */\n\n    /* \n        @dev user subscribes for each fee period\n        @param _channelId\n     */\n    function subscribeToChannel(uint256 _channelId) public payable {\n        require(\n            msg.value == CHANNEL_SUBSCRIPTION_FEE,\n            \"Must pay exact fee to subscribe\"\n        );\n        channelIdToUserSubscriptionStatus[currentFeePeriod][_channelId][msg\n            .sender] = true;\n    }\n\n    /* \n        @dev user unsubscribes and loses access at end of fee period\n        @param _channelId\n     */\n    function unsubscribeToChannel(uint256 _channelId) public {\n        channelIdToUserSubscriptionStatus[currentFeePeriod][_channelId][msg\n            .sender] = false;\n    }\n\n    function isUserSubscribedToChannel(uint256 _channelId)\n        public\n        returns (bool)\n    {\n        return\n            channelIdToUserSubscriptionStatus[currentFeePeriod][_channelId][msg\n                .sender];\n    }\n\n    /* ------ CONTENT FUNCTIONS ------ */\n\n    /* \n        @dev deploys new CBT contract, one per content channel\n        @param _channelName\n     */\n    function createChannel(bytes memory _channelName) public {\n        Channel memory newChannel = Channel({\n            id: channelId,\n            subscribers: 0,\n            name: _channelName\n        });\n\n        channels[channelId++] = newChannel;\n    }\n\n    /* \n        @dev content creators must register to begin building reputation\n        @param _creatorName\n     */\n    function registerContentCreator(bytes memory _creatorName) public {\n        require(creatorAddressToId[msg.sender] == 0, \"Creator already exists\");\n        creatorAddressToId[msg.sender] = creatorId;\n        creatorIdToName[creatorId] = _creatorName;\n    }\n\n    /* \n        @dev creators posting content\n        @param _content\n        @param _channelId\n     */\n    function createPost(string memory _content, uint256 _channelId) public {\n        require(creatorAddressToId[msg.sender] > 0, \"Creator not registered\");\n        require(\n            creatorToLastPosted[msg.sender] + TIME_BETWEEN_POSTS <\n                block.timestamp,\n            \"Creator must wait 12 hours between posts\"\n        );\n        require(\n            channelIdToUserSubscriptionStatus[currentFeePeriod][_channelId][msg\n                .sender] ==\n                true,\n            \"Creator not subscribed to channel\"\n        );\n\n        Post memory newPost = Post({\n            id: postId,\n            channelId: _channelId,\n            feePeriodId: currentFeePeriod,\n            timestamp: block.timestamp,\n            upvotes: 0,\n            downvotes: 0,\n            content: _content,\n            creator: msg.sender\n        });\n\n        emit PostCreated(msg.sender, _channelId, _content);\n\n        posts[postId] = newPost;\n        channelPostsByFeePeriod[currentFeePeriod][_channelId].push(postId);\n        creatorToPostsByFeePeriod[msg.sender][currentFeePeriod].push(postId++);\n    }\n\n    /* ------ VOTING FUNCTIONS ------ */\n\n    modifier isEquityOwner(uint256 _channelId) {\n        require(\n            channelIdToUserEquity[_channelId][msg.sender] > 0,\n            \"Voter isn't an equity owner\"\n        );\n        _;\n    }\n\n    /* \n        @dev only equity owners in channel are capable of voting\n        @param _channelId\n        @param _postId\n        @param upvote boolean\n     */\n    function voteOnPost(uint256 _channelId, uint256 _postId, bool upvote)\n        public\n        isEquityOwner(_channelId)\n    {\n        if (upvote) {\n            posts[_postId].upvotes++;\n        } else {\n            posts[_postId].downvotes++;\n        }\n    }\n\n    /* \n        @dev content consumers are endowed with five bookmarks per fee period\n            bookmarks dictate half of the content creators payout\n        @param _channelId\n        @param _postId\n        @param upvote boolean\n     */\n    function bookmarkPost(uint256 _postId, uint256 _channelId) public {\n        require(\n            posts[_postId].feePeriodId == currentFeePeriod,\n            \"Bookmarks are only valid for posts in current fee period\"\n        );\n        require(\n            userBookmarksPerPeriod[currentFeePeriod][msg.sender] <\n                MAX_BOOKMARKS_PER_PERIOD,\n            \"User has no bookmarks remaining\"\n        );\n        require(\n            channelIdToUserSubscriptionStatus[currentFeePeriod][_channelId][msg\n                .sender] ==\n                true,\n            \"Bookmarker must be subscribed to channel\"\n        );\n\n        userBookmarksPerPeriod[currentFeePeriod][msg.sender]++;\n\n        address postCreator = posts[_postId].creator;\n        receivedBookmarksPerPeriod[currentFeePeriod][postCreator]++;\n    }\n\n    /* ------ FEE PERIOD FUNCTIONS ------ */\n\n    function closeFeePeriod() public onlyOwner {\n        require(\n            genesisTimestamp + currentFeePeriod.mul(WEEK_IN_SECONDS) >\n                block.timestamp,\n            \"Fee period not yet complete\"\n        );\n\n        for (uint256 i = 0; i < getNumberOfChannels(); i++) {\n            uint256 fee = (channels[i].subscribers)\n                .mul(CHANNEL_SUBSCRIPTION_FEE)\n                .div(2);\n\n            feePeriods[currentFeePeriod][i].valueForEquityDistribution = fee;\n            feePeriods[currentFeePeriod][i].valueForCreatorDistribution = fee;\n        }\n\n        currentFeePeriod++;\n    }\n\n    function collectEquityFees(uint256 _channelId)\n        public\n        isEquityOwner(_channelId)\n    {\n        uint256 equityOwnership = channelIdToUserEquity[_channelId][msg.sender];\n        uint256 totalEquity = channelIdToTotalEquity[_channelId];\n\n        uint256 payout = (equityOwnership *\n            (\n                feePeriods[currentFeePeriod - 1][_channelId]\n                    .valueForEquityDistribution\n            )) /\n            totalEquity;\n\n        periodFeesCollected[currentFeePeriod - 1][_channelId][msg\n            .sender] = true;\n\n        msg.sender.transfer(payout);\n    }\n\n    function collectContentFees(uint256 _channelId) public {\n        // define isContentCreator\n    }\n\n    /* ------ GETTER FUNCTIONS ------ */\n\n    function getNumberOfChannels() public view returns (uint256 _num) {\n        return channelId - 1;\n    }\n\n    function getNumberOfPosts(uint256 _feePeriodId, uint256 _channelId)\n        public\n        view\n        returns (uint256 _num)\n    {\n        channelPostsByFeePeriod[_feePeriodId][_channelId].length;\n    }\n\n    function getPostById(uint256 _postId)\n        public\n        view\n        returns (\n            uint256 _timestamp,\n            uint256 _upvotes,\n            uint256 _downvotes,\n            string memory _content,\n            address _creator\n        )\n    {\n        return (\n            posts[_postId].timestamp,\n            posts[_postId].upvotes,\n            posts[_postId].downvotes,\n            posts[_postId].content,\n            posts[_postId].creator\n        );\n    }\n}\n",
  "sourcePath": "/Users/michaeljcohen/Desktop/projects/micronews/contracts/Micronews.sol",
  "compiler": {
    "name": "solc",
    "version": "0.5.0+commit.1d4f565a.Emscripten.clang"
  },
  "schemaVersion": "3.0.2",
  "updatedAt": "2019-10-01T15:57:35.324Z",
  "devdoc": {
    "methods": {
      "isOwner()": {
        "details": "Returns true if the caller is the current owner."
      },
      "owner()": {
        "details": "Returns the address of the current owner."
      },
      "renounceOwnership()": {
        "details": "Leaves the contract without owner. It will not be possible to call `onlyOwner` functions anymore. Can only be called by the current owner.     * > Note: Renouncing ownership will leave the contract without an owner, thereby removing any functionality that is only available to the owner."
      },
      "transferOwnership(address)": {
        "details": "Transfers ownership of the contract to a new account (`newOwner`). Can only be called by the current owner."
      }
    }
  },
  "userdoc": {
    "methods": {}
  }
}