{
  "contractName": "SecureCredit",
  "abi": [
    {
      "constant": true,
      "inputs": [],
      "name": "Dai",
      "outputs": [
        {
          "name": "",
          "type": "address"
        }
      ],
      "payable": false,
      "stateMutability": "view",
      "type": "function"
    },
    {
      "constant": true,
      "inputs": [],
      "name": "cDai",
      "outputs": [
        {
          "name": "",
          "type": "address"
        }
      ],
      "payable": false,
      "stateMutability": "view",
      "type": "function"
    },
    {
      "constant": true,
      "inputs": [],
      "name": "cEth",
      "outputs": [
        {
          "name": "",
          "type": "address"
        }
      ],
      "payable": false,
      "stateMutability": "view",
      "type": "function"
    },
    {
      "payable": true,
      "stateMutability": "payable",
      "type": "fallback"
    },
    {
      "anonymous": false,
      "inputs": [
        {
          "indexed": false,
          "name": "_user",
          "type": "address"
        },
        {
          "indexed": false,
          "name": "_amount",
          "type": "uint256"
        },
        {
          "indexed": false,
          "name": "endTime",
          "type": "uint256"
        },
        {
          "indexed": false,
          "name": "_loanType",
          "type": "uint8"
        }
      ],
      "name": "BorrowedMoney",
      "type": "event"
    },
    {
      "anonymous": false,
      "inputs": [
        {
          "indexed": false,
          "name": "_user",
          "type": "address"
        },
        {
          "indexed": false,
          "name": "Id",
          "type": "bytes32"
        },
        {
          "indexed": false,
          "name": "_amount",
          "type": "uint256"
        },
        {
          "indexed": false,
          "name": "_loanType",
          "type": "uint8"
        }
      ],
      "name": "LiquidatedLoan",
      "type": "event"
    },
    {
      "constant": false,
      "inputs": [
        {
          "name": "_tokenAmt",
          "type": "uint256"
        }
      ],
      "name": "lendToken",
      "outputs": [],
      "payable": false,
      "stateMutability": "nonpayable",
      "type": "function"
    },
    {
      "constant": false,
      "inputs": [],
      "name": "depositDAI",
      "outputs": [],
      "payable": false,
      "stateMutability": "nonpayable",
      "type": "function"
    },
    {
      "constant": false,
      "inputs": [
        {
          "name": "_amount",
          "type": "uint256"
        }
      ],
      "name": "lendEther",
      "outputs": [],
      "payable": true,
      "stateMutability": "payable",
      "type": "function"
    },
    {
      "constant": false,
      "inputs": [
        {
          "name": "_amount",
          "type": "uint256"
        },
        {
          "name": "_endTime",
          "type": "uint256"
        }
      ],
      "name": "borrowEther",
      "outputs": [],
      "payable": false,
      "stateMutability": "nonpayable",
      "type": "function"
    },
    {
      "constant": false,
      "inputs": [
        {
          "name": "_amount",
          "type": "uint256"
        },
        {
          "name": "_endTime",
          "type": "uint256"
        }
      ],
      "name": "borrowDAI",
      "outputs": [],
      "payable": false,
      "stateMutability": "nonpayable",
      "type": "function"
    }
  ],
  "bytecode": "0x608060405273d6801a1dffcd0a410336ef88def4320d6df1883e6000806101000a81548173ffffffffffffffffffffffffffffffffffffffff021916908373ffffffffffffffffffffffffffffffffffffffff160217905550735592ec0cfb4dbc12d3ab100b257153436a1f0fea600160006101000a81548173ffffffffffffffffffffffffffffffffffffffff021916908373ffffffffffffffffffffffffffffffffffffffff160217905550736d7f0754ffeb405d23c51ce938289d4835be3b14600260006101000a81548173ffffffffffffffffffffffffffffffffffffffff021916908373ffffffffffffffffffffffffffffffffffffffff16021790555034801561010e57600080fd5b506124e08061011e6000396000f3fe60806040526004361061007b5760003560e01c806382b142a61161004e57806382b142a6146103215780639b089d5514610366578063a44026a3146103bd578063d805fb44146104145761007b565b806320f517071461024a5780632ac48d59146102a157806358d7b803146102dc57806361becd771461030a575b600034116100f1576040517f08c379a00000000000000000000000000000000000000000000000000000000081526004018080602001828103825260188152602001807f457468657220616d6f756e7420657175616c20746f203020000000000000000081525060200191505060405180910390fd5b61013a600360003373ffffffffffffffffffffffffffffffffffffffff1673ffffffffffffffffffffffffffffffffffffffff1681526020019081526020016000205434610459565b600360003373ffffffffffffffffffffffffffffffffffffffff1673ffffffffffffffffffffffffffffffffffffffff16815260200190815260200160002081905550610205600360003373ffffffffffffffffffffffffffffffffffffffff1673ffffffffffffffffffffffffffffffffffffffff16815260200190815260200160002054600560003373ffffffffffffffffffffffffffffffffffffffff1673ffffffffffffffffffffffffffffffffffffffff168152602001908152602001600020546104dc565b600760003373ffffffffffffffffffffffffffffffffffffffff1673ffffffffffffffffffffffffffffffffffffffff16815260200190815260200160002081905550005b34801561025657600080fd5b5061025f61055f565b604051808273ffffffffffffffffffffffffffffffffffffffff1673ffffffffffffffffffffffffffffffffffffffff16815260200191505060405180910390f35b3480156102ad57600080fd5b506102da600480360360208110156102c457600080fd5b8101908080359060200190929190505050610585565b005b610308600480360360208110156102f257600080fd5b81019080803590602001909291905050506108cd565b005b34801561031657600080fd5b5061031f610af3565b005b34801561032d57600080fd5b506103646004803603604081101561034457600080fd5b810190808035906020019092919080359060200190929190505050610e80565b005b34801561037257600080fd5b5061037b610f4f565b604051808273ffffffffffffffffffffffffffffffffffffffff1673ffffffffffffffffffffffffffffffffffffffff16815260200191505060405180910390f35b3480156103c957600080fd5b506103d2610f75565b604051808273ffffffffffffffffffffffffffffffffffffffff1673ffffffffffffffffffffffffffffffffffffffff16815260200191505060405180910390f35b34801561042057600080fd5b506104576004803603604081101561043757600080fd5b810190808035906020019092919080359060200190929190505050610f9a565b005b60008282840191508110156104d6576040517f08c379a000000000000000000000000000000000000000000000000000000000815260040180806020018281038252600d8152602001807f6d6174682d6e6f742d736166650000000000000000000000000000000000000081525060200191505060405180910390fd5b92915050565b600082821115610554576040517f08c379a000000000000000000000000000000000000000000000000000000000815260040180806020018281038252601e8152602001807f536166654d6174683a207375627472616374696f6e206f766572666c6f77000081525060200191505060405180910390fd5b818303905092915050565b600160009054906101000a900473ffffffffffffffffffffffffffffffffffffffff1681565b80600081116105fc576040517f08c379a000000000000000000000000000000000000000000000000000000000815260040180806020018281038252601d8152602001807f416d6f756e74206d7573742062652067726561746572207468616e203000000081525060200191505060405180910390fd5b600860003373ffffffffffffffffffffffffffffffffffffffff1673ffffffffffffffffffffffffffffffffffffffff1681526020019081526020016000205482106106b0576040517f08c379a00000000000000000000000000000000000000000000000000000000081526004018080602001828103825260108152602001807f496e636f727265637420616d6f756e740000000000000000000000000000000081525060200191505060405180910390fd5b6000600260009054906101000a900473ffffffffffffffffffffffffffffffffffffffff16905060008173ffffffffffffffffffffffffffffffffffffffff1663a0712d68856040518263ffffffff1660e01b815260040180828152602001915050602060405180830381600087803b15801561072c57600080fd5b505af1158015610740573d6000803e3d6000fd5b505050506040513d602081101561075657600080fd5b81019080805190602001909291905050501461077157600080fd5b6107ba600660003373ffffffffffffffffffffffffffffffffffffffff1673ffffffffffffffffffffffffffffffffffffffff1681526020019081526020016000205484610459565b600660003373ffffffffffffffffffffffffffffffffffffffff1673ffffffffffffffffffffffffffffffffffffffff16815260200190815260200160002081905550610885600460003373ffffffffffffffffffffffffffffffffffffffff1673ffffffffffffffffffffffffffffffffffffffff16815260200190815260200160002054600660003373ffffffffffffffffffffffffffffffffffffffff1673ffffffffffffffffffffffffffffffffffffffff168152602001908152602001600020546104dc565b600860003373ffffffffffffffffffffffffffffffffffffffff1673ffffffffffffffffffffffffffffffffffffffff16815260200190815260200160002081905550505050565b8060008111610944576040517f08c379a000000000000000000000000000000000000000000000000000000000815260040180806020018281038252601d8152602001807f416d6f756e74206d7573742062652067726561746572207468616e203000000081525060200191505060405180910390fd5b600760003373ffffffffffffffffffffffffffffffffffffffff1673ffffffffffffffffffffffffffffffffffffffff16815260200190815260200160002054821061098f57600080fd5b6109988261114a565b6109e1600560003373ffffffffffffffffffffffffffffffffffffffff1673ffffffffffffffffffffffffffffffffffffffff1681526020019081526020016000205483610459565b600560003373ffffffffffffffffffffffffffffffffffffffff1673ffffffffffffffffffffffffffffffffffffffff16815260200190815260200160002081905550610aac600360003373ffffffffffffffffffffffffffffffffffffffff1673ffffffffffffffffffffffffffffffffffffffff16815260200190815260200160002054600560003373ffffffffffffffffffffffffffffffffffffffff1673ffffffffffffffffffffffffffffffffffffffff168152602001908152602001600020546104dc565b600760003373ffffffffffffffffffffffffffffffffffffffff1673ffffffffffffffffffffffffffffffffffffffff168152602001908152602001600020819055505050565b6000600160009054906101000a900473ffffffffffffffffffffffffffffffffffffffff1673ffffffffffffffffffffffffffffffffffffffff1663dd62ed3e33306040518363ffffffff1660e01b8152600401808373ffffffffffffffffffffffffffffffffffffffff1673ffffffffffffffffffffffffffffffffffffffff1681526020018273ffffffffffffffffffffffffffffffffffffffff1673ffffffffffffffffffffffffffffffffffffffff1681526020019250505060206040518083038186803b158015610bc857600080fd5b505afa158015610bdc573d6000803e3d6000fd5b505050506040513d6020811015610bf257600080fd5b81019080805190602001909291905050509050600160009054906101000a900473ffffffffffffffffffffffffffffffffffffffff1673ffffffffffffffffffffffffffffffffffffffff166323b872dd3330846040518463ffffffff1660e01b8152600401808473ffffffffffffffffffffffffffffffffffffffff1673ffffffffffffffffffffffffffffffffffffffff1681526020018373ffffffffffffffffffffffffffffffffffffffff1673ffffffffffffffffffffffffffffffffffffffff1681526020018281526020019350505050602060405180830381600087803b158015610ce257600080fd5b505af1158015610cf6573d6000803e3d6000fd5b505050506040513d6020811015610d0c57600080fd5b8101908080519060200190929190505050610d2657600080fd5b610d6f600460003373ffffffffffffffffffffffffffffffffffffffff1673ffffffffffffffffffffffffffffffffffffffff1681526020019081526020016000205482610459565b600460003373ffffffffffffffffffffffffffffffffffffffff1673ffffffffffffffffffffffffffffffffffffffff16815260200190815260200160002081905550610e3a600360003373ffffffffffffffffffffffffffffffffffffffff1673ffffffffffffffffffffffffffffffffffffffff16815260200190815260200160002054600560003373ffffffffffffffffffffffffffffffffffffffff1673ffffffffffffffffffffffffffffffffffffffff168152602001908152602001600020546104dc565b600860003373ffffffffffffffffffffffffffffffffffffffff1673ffffffffffffffffffffffffffffffffffffffff1681526020019081526020016000208190555050565b81600360003373ffffffffffffffffffffffffffffffffffffffff1673ffffffffffffffffffffffffffffffffffffffff168152602001908152602001600020541015610ecc57600080fd5b428110610f41576040517f08c379a00000000000000000000000000000000000000000000000000000000081526004018080602001828103825260208152602001807f456e642074696d65206c6f776572207468616e2063757272656e742074696d6581525060200191505060405180910390fd5b610f4b82826113e9565b5050565b600260009054906101000a900473ffffffffffffffffffffffffffffffffffffffff1681565b6000809054906101000a900473ffffffffffffffffffffffffffffffffffffffff1681565b8160008111611011576040517f08c379a000000000000000000000000000000000000000000000000000000000815260040180806020018281038252601d8152602001807f416d6f756e74206d7573742062652067726561746572207468616e203000000081525060200191505060405180910390fd5b82600360003373ffffffffffffffffffffffffffffffffffffffff1673ffffffffffffffffffffffffffffffffffffffff1681526020019081526020016000205410156110c6576040517f08c379a00000000000000000000000000000000000000000000000000000000081526004018080602001828103825260188152602001807f43616e6e6f7420626f72726f77206f766572206c696d6974000000000000000081525060200191505060405180910390fd5b42821061113b576040517f08c379a00000000000000000000000000000000000000000000000000000000081526004018080602001828103825260208152602001807f456e642074696d65206c6f776572207468616e2063757272656e742074696d6581525060200191505060405180910390fd5b6111458383611c5b565b505050565b60008111156113e65760008060009054906101000a900473ffffffffffffffffffffffffffffffffffffffff1690508073ffffffffffffffffffffffffffffffffffffffff16631249c58b836040518263ffffffff1660e01b81526004016000604051808303818588803b1580156111c157600080fd5b505af11580156111d5573d6000803e3d6000fd5b505050505060008060009054906101000a900473ffffffffffffffffffffffffffffffffffffffff1673ffffffffffffffffffffffffffffffffffffffff1663bd6d894d6040518163ffffffff1660e01b8152600401602060405180830381600087803b15801561124557600080fd5b505af1158015611259573d6000803e3d6000fd5b505050506040513d602081101561126f57600080fd5b81019080805190602001909291905050509050600061128e84836123a7565b90508361129b82846123df565b11156112aa57600181036112ac565b805b90508273ffffffffffffffffffffffffffffffffffffffff1663a9059cbb33836040518363ffffffff1660e01b8152600401808373ffffffffffffffffffffffffffffffffffffffff1673ffffffffffffffffffffffffffffffffffffffff16815260200182815260200192505050602060405180830381600087803b15801561133557600080fd5b505af1158015611349573d6000803e3d6000fd5b505050506040513d602081101561135f57600080fd5b81019080805190602001909291905050506113e2576040517f08c379a00000000000000000000000000000000000000000000000000000000081526004018080602001828103825260148152602001807f43455448205472616e73666572206661696c656400000000000000000000000081525060200191505060405180910390fd5b5050505b50565b60008090505b600960003373ffffffffffffffffffffffffffffffffffffffff1673ffffffffffffffffffffffffffffffffffffffff168152602001908152602001600020805490508110156118a25742600960003373ffffffffffffffffffffffffffffffffffffffff1673ffffffffffffffffffffffffffffffffffffffff168152602001908152602001600020828154811061148457fe5b90600052602060002090600602016003015411801561152057506001808111156114aa57fe5b600960003373ffffffffffffffffffffffffffffffffffffffff1673ffffffffffffffffffffffffffffffffffffffff16815260200190815260200160002082815481106114f457fe5b906000526020600020906006020160050160029054906101000a900460ff16600181111561151e57fe5b145b15611895576115c9600460003373ffffffffffffffffffffffffffffffffffffffff1673ffffffffffffffffffffffffffffffffffffffff16815260200190815260200160002054600960003373ffffffffffffffffffffffffffffffffffffffff1673ffffffffffffffffffffffffffffffffffffffff16815260200190815260200160002083815481106115b257fe5b9060005260206000209060060201600101546104dc565b600460003373ffffffffffffffffffffffffffffffffffffffff1673ffffffffffffffffffffffffffffffffffffffff168152602001908152602001600020819055506000600960003373ffffffffffffffffffffffffffffffffffffffff1673ffffffffffffffffffffffffffffffffffffffff168152602001908152602001600020828154811061165857fe5b906000526020600020906006020160050160006101000a81548160ff02191690831515021790555042600960003373ffffffffffffffffffffffffffffffffffffffff1673ffffffffffffffffffffffffffffffffffffffff16815260200190815260200160002082815481106116cb57fe5b9060005260206000209060060201600401819055506001600960003373ffffffffffffffffffffffffffffffffffffffff1673ffffffffffffffffffffffffffffffffffffffff168152602001908152602001600020828154811061172c57fe5b906000526020600020906006020160050160016101000a81548160ff0219169083151502179055507f5963aa890908fc1fbccb4a6d7579d97cdc5bb93ff9a13f87457c813e6c8b6ca933600960003373ffffffffffffffffffffffffffffffffffffffff1673ffffffffffffffffffffffffffffffffffffffff16815260200190815260200160002083815481106117c057fe5b906000526020600020906006020160000154600960003373ffffffffffffffffffffffffffffffffffffffff1673ffffffffffffffffffffffffffffffffffffffff168152602001908152602001600020848154811061181c57fe5b9060005260206000209060060201600101546001604051808573ffffffffffffffffffffffffffffffffffffffff1673ffffffffffffffffffffffffffffffffffffffff16815260200184815260200183815260200182600181111561187e57fe5b60ff16815260200194505050505060405180910390a15b80806001019150506113ef565b506118ec600860003373ffffffffffffffffffffffffffffffffffffffff1673ffffffffffffffffffffffffffffffffffffffff16815260200190815260200160002054836104dc565b600860003373ffffffffffffffffffffffffffffffffffffffff1673ffffffffffffffffffffffffffffffffffffffff16815260200190815260200160002081905550600160009054906101000a900473ffffffffffffffffffffffffffffffffffffffff1673ffffffffffffffffffffffffffffffffffffffff1663a9059cbb33846040518363ffffffff1660e01b8152600401808373ffffffffffffffffffffffffffffffffffffffff1673ffffffffffffffffffffffffffffffffffffffff16815260200182815260200192505050602060405180830381600087803b1580156119d857600080fd5b505af11580156119ec573d6000803e3d6000fd5b505050506040513d6020811015611a0257600080fd5b810190808051906020019092919050505050600960003373ffffffffffffffffffffffffffffffffffffffff1673ffffffffffffffffffffffffffffffffffffffff168152602001908152602001600020604051806101000160405280338542604051602001808473ffffffffffffffffffffffffffffffffffffffff1673ffffffffffffffffffffffffffffffffffffffff1660601b8152601401838152602001828152602001935050505060405160208183030381529060405280519060200120815260200184815260200142815260200183815260200160008152602001600115158152602001600015158152602001600180811115611b0157fe5b81525090806001815401808255809150509060018203906000526020600020906006020160009091929091909150600082015181600001556020820151816001015560408201518160020155606082015181600301556080820151816004015560a08201518160050160006101000a81548160ff02191690831515021790555060c08201518160050160016101000a81548160ff02191690831515021790555060e08201518160050160026101000a81548160ff02191690836001811115611bc557fe5b02179055505050507f56363abf37783928c55778a34a54bbfb2bb484b33f176176758cef0a2f19fda73383836001604051808573ffffffffffffffffffffffffffffffffffffffff1673ffffffffffffffffffffffffffffffffffffffff168152602001848152602001838152602001826001811115611c4157fe5b60ff16815260200194505050505060405180910390a15050565b60008090505b600960003373ffffffffffffffffffffffffffffffffffffffff1673ffffffffffffffffffffffffffffffffffffffff1681526020019081526020016000208054905081101561208b5742600960003373ffffffffffffffffffffffffffffffffffffffff1673ffffffffffffffffffffffffffffffffffffffff1681526020019081526020016000208281548110611cf657fe5b906000526020600020906006020160030154111561207e57611db2600360003373ffffffffffffffffffffffffffffffffffffffff1673ffffffffffffffffffffffffffffffffffffffff16815260200190815260200160002054600960003373ffffffffffffffffffffffffffffffffffffffff1673ffffffffffffffffffffffffffffffffffffffff1681526020019081526020016000208381548110611d9b57fe5b9060005260206000209060060201600101546104dc565b600360003373ffffffffffffffffffffffffffffffffffffffff1673ffffffffffffffffffffffffffffffffffffffff168152602001908152602001600020819055506000600960003373ffffffffffffffffffffffffffffffffffffffff1673ffffffffffffffffffffffffffffffffffffffff1681526020019081526020016000208281548110611e4157fe5b906000526020600020906006020160050160006101000a81548160ff02191690831515021790555042600960003373ffffffffffffffffffffffffffffffffffffffff1673ffffffffffffffffffffffffffffffffffffffff1681526020019081526020016000208281548110611eb457fe5b9060005260206000209060060201600401819055506001600960003373ffffffffffffffffffffffffffffffffffffffff1673ffffffffffffffffffffffffffffffffffffffff1681526020019081526020016000208281548110611f1557fe5b906000526020600020906006020160050160016101000a81548160ff0219169083151502179055507f5963aa890908fc1fbccb4a6d7579d97cdc5bb93ff9a13f87457c813e6c8b6ca933600960003373ffffffffffffffffffffffffffffffffffffffff1673ffffffffffffffffffffffffffffffffffffffff1681526020019081526020016000208381548110611fa957fe5b906000526020600020906006020160000154600960003373ffffffffffffffffffffffffffffffffffffffff1673ffffffffffffffffffffffffffffffffffffffff168152602001908152602001600020848154811061200557fe5b9060005260206000209060060201600101546000604051808573ffffffffffffffffffffffffffffffffffffffff1673ffffffffffffffffffffffffffffffffffffffff16815260200184815260200183815260200182600181111561206757fe5b60ff16815260200194505050505060405180910390a15b8080600101915050611c61565b506120d5600760003373ffffffffffffffffffffffffffffffffffffffff1673ffffffffffffffffffffffffffffffffffffffff16815260200190815260200160002054836104dc565b600760003373ffffffffffffffffffffffffffffffffffffffff1673ffffffffffffffffffffffffffffffffffffffff168152602001908152602001600020819055503373ffffffffffffffffffffffffffffffffffffffff166108fc839081150290604051600060405180830381858888f1935050505015801561215e573d6000803e3d6000fd5b50600960003373ffffffffffffffffffffffffffffffffffffffff1673ffffffffffffffffffffffffffffffffffffffff168152602001908152602001600020604051806101000160405280338542604051602001808473ffffffffffffffffffffffffffffffffffffffff1673ffffffffffffffffffffffffffffffffffffffff1660601b81526014018381526020018281526020019350505050604051602081830303815290604052805190602001208152602001848152602001428152602001838152602001600081526020016001151581526020016000151581526020016000600181111561224d57fe5b81525090806001815401808255809150509060018203906000526020600020906006020160009091929091909150600082015181600001556020820151816001015560408201518160020155606082015181600301556080820151816004015560a08201518160050160006101000a81548160ff02191690831515021790555060c08201518160050160016101000a81548160ff02191690831515021790555060e08201518160050160026101000a81548160ff0219169083600181111561231157fe5b02179055505050507f56363abf37783928c55778a34a54bbfb2bb484b33f176176758cef0a2f19fda73383836000604051808573ffffffffffffffffffffffffffffffffffffffff1673ffffffffffffffffffffffffffffffffffffffff16815260200184815260200183815260200182600181111561238d57fe5b60ff16815260200194505050505060405180910390a15050565b6000816123cf6123bf85670de0b6b3a764000061241f565b600285816123c957fe5b04610459565b816123d657fe5b04905092915050565b6000670de0b6b3a764000061240f6123f7858561241f565b6002670de0b6b3a76400008161240957fe5b04610459565b8161241657fe5b04905092915050565b60008082148061243c575082828385029250828161243957fe5b04145b6124ae576040517f08c379a000000000000000000000000000000000000000000000000000000000815260040180806020018281038252600d8152602001807f6d6174682d6e6f742d736166650000000000000000000000000000000000000081525060200191505060405180910390fd5b9291505056fea165627a7a723058205167258a9dae39a4cfd69dc926c4da63ad830aa448eaa5a9d28cf7e20b68d1230029",
  "source": "pragma solidity ^0.5.8;\r\n\r\ninterface CTokenInterface {\r\n    function mint(uint mintAmount) external returns (uint); // For ERC20\r\n    function redeem(uint redeemTokens) external returns (uint);\r\n    function redeemUnderlying(uint redeemAmount) external returns (uint);\r\n    function exchangeRateCurrent() external returns (uint);\r\n    function transfer(address, uint) external returns (bool);\r\n    function transferFrom(address, address, uint) external returns (bool);\r\n    function balanceOf(address) external view returns (uint);\r\n}\r\n\r\ninterface ERC20Interface {\r\n    function allowance(address, address) external view returns (uint);\r\n    function balanceOf(address) external view returns (uint);\r\n    function approve(address, uint) external;\r\n    function transfer(address, uint) external returns (bool);\r\n    function transferFrom(address, address, uint) external returns (bool);\r\n    function deposit() external payable;\r\n    function withdraw(uint) external;\r\n}\r\n\r\ninterface CETHInterface {\r\n    function mint() external payable; // For ETH\r\n    function transfer(address, uint) external returns (bool);\r\n}\r\n\r\ninterface CDAIInterface {\r\n    function mint(uint mintAmount) external returns (uint); // For ERC20\r\n    function repayBorrowBehalf(address borrower, uint repayAmount) external returns (uint);\r\n    function borrowBalanceCurrent(address account) external returns (uint);\r\n}\r\n\r\ncontract DSMath {\r\n\r\n    function add(uint x, uint y) internal pure returns (uint z) {\r\n        require((z = x + y) >= x, \"math-not-safe\");\r\n    }\r\n\r\n    function mul(uint x, uint y) internal pure returns (uint z) {\r\n        require(y == 0 || (z = x * y) / y == x, \"math-not-safe\");\r\n    }\r\n\r\n    uint constant WAD = 10 ** 18;\r\n    uint constant RAY = 10 ** 27;\r\n\r\n    function rmul(uint x, uint y) internal pure returns (uint z) {\r\n        z = add(mul(x, y), RAY / 2) / RAY;\r\n    }\r\n\r\n    function rdiv(uint x, uint y) internal pure returns (uint z) {\r\n        z = add(mul(x, RAY), y / 2) / y;\r\n    }\r\n\r\n    function wmul(uint x, uint y) internal pure returns (uint z) {\r\n        z = add(mul(x, y), WAD / 2) / WAD;\r\n    }\r\n\r\n    function wdiv(uint x, uint y) internal pure returns (uint z) {\r\n        z = add(mul(x, WAD), y / 2) / y;\r\n    }\r\n\r\n    function sub(uint a, uint b) internal pure returns (uint c) {\r\n        require(b <= a, \"SafeMath: subtraction overflow\");\r\n        c = a - b;\r\n    }\r\n\r\n}\r\n\r\ncontract Helper is DSMath{\r\n\r\n    address public cEth = 0xd6801a1DfFCd0a410336Ef88DeF4320D6DF1883e;\r\n    address public Dai  = 0x5592EC0cfb4dbc12D3aB100b257153436a1f0FEa;\r\n    address public cDai = 0x6D7F0754FFeb405d23C51CE938289d4835bE3b14;\r\n}\r\n\r\ncontract CompoundResolver is Helper {\r\n\r\n    /**\r\n     * @dev Redeem ETH/ERC20 and mint Compound Tokens\r\n     * @param tokenAmt Amount of token To Redeem\r\n     */\r\n    function redeemUnderlying(address cErc20, uint tokenAmt) internal {\r\n        if (tokenAmt > 0) {\r\n            require(CTokenInterface(cErc20).redeemUnderlying(tokenAmt) == 0, \"something went wrong\");\r\n        }\r\n    }\r\n\r\n    /**\r\n     * @dev Deposit ETH/ERC20 and mint Compound Tokens\r\n     */\r\n    function mintCETH(uint ethAmt) internal {\r\n        if (ethAmt > 0) {\r\n            CETHInterface cToken = CETHInterface(cEth);\r\n            cToken.mint.value(ethAmt)();\r\n            uint exchangeRate = CTokenInterface(cEth).exchangeRateCurrent();\r\n            uint cEthToReturn = wdiv(ethAmt, exchangeRate);\r\n            cEthToReturn = wmul(cEthToReturn, exchangeRate) <= ethAmt ? cEthToReturn : cEthToReturn - 1;\r\n            require(cToken.transfer(msg.sender, cEthToReturn), \"CETH Transfer failed\");\r\n        }\r\n    }\r\n}\r\n\r\ncontract SecureCredit is CompoundResolver {\r\n\r\n    enum TypeLoan{ LoanEther, LoanDAI }\r\n\r\n    struct LoanBorrow{\r\n        bytes32 Id;\r\n        uint256 amount;\r\n        uint256 startTime;\r\n        uint256 endTime;\r\n        uint256 timeRepaid;\r\n        bool active;\r\n        bool liquidated;\r\n        TypeLoan loantype;\r\n    }\r\n\r\n    // @dev Mapping used to handle the balance of Ether that the user deposited\r\n    mapping(address=>uint256) addressToBalanceEther;\r\n    // @dev Mapping used to handle the balance of DAI that the user deposited\r\n    mapping(address=>uint256) addressToBalanceDAI;\r\n    // @dev Mapping used to handle the balance of Ether lent to Compound\r\n    mapping(address=>uint256) amountCompoundEther;\r\n    // @dev Mapping used to handle the balance of DAI lent to Compound\r\n    mapping(address=>uint256) amountCompoundDAI;\r\n    // @dev Mapping used to handle the balance of Ether deposited minus amount lent\r\n    mapping(address=>uint256) effectiveBalanceEther;\r\n    // @dev Mapping used to handle the balance of DAI deposited minus amount lent\r\n    mapping(address=>uint256) effectiveBalanceDAI;\r\n    // @dev Mapping used to handle the information of the loan\r\n    mapping(address=>LoanBorrow[]) addressToLoan;\r\n\r\n    modifier hasCorrectAmount(uint _amount){\r\n      require(_amount > 0, \"Amount must be greater than 0\");\r\n      _;\r\n    }\r\n\r\n    event BorrowedMoney ( address _user, uint256 _amount, uint256 endTime, TypeLoan _loanType );\r\n    event LiquidatedLoan ( address _user, bytes32 Id, uint256 _amount, TypeLoan _loanType );\r\n\r\n    //Paying someone using the contract, helps to secure your credit score\r\n    //If you take out the loan, the issue would mainly be the fact, who is the one lending ?\r\n\r\n\r\n    //The more repaid transaction, the better is the credit score\r\n\r\n    function lendToken(uint _tokenAmt) public hasCorrectAmount(_tokenAmt){\r\n        require(_tokenAmt < effectiveBalanceDAI[msg.sender], \"Incorrect amount\");\r\n        //Check amount is less than addressTo Balance;\r\n        CTokenInterface cToken = CTokenInterface(cDai);\r\n        require(cToken.mint(_tokenAmt) == 0);\r\n        amountCompoundDAI[msg.sender] = add(amountCompoundDAI[msg.sender], _tokenAmt);\r\n        effectiveBalanceDAI[msg.sender] = sub(addressToBalanceDAI[msg.sender], amountCompoundDAI[msg.sender]);\r\n    }\r\n\r\n\r\n   function() external payable{\r\n       require(msg.value > 0, \"Ether amount equal to 0 \");\r\n       addressToBalanceEther[msg.sender] = add(addressToBalanceEther[msg.sender], msg.value);\r\n       effectiveBalanceEther[msg.sender] = sub(addressToBalanceEther[msg.sender], amountCompoundEther[msg.sender]);\r\n   }\r\n\r\n   function depositDAI() public {\r\n     uint allowanceDai = ERC20Interface(Dai).allowance(msg.sender, address(this));\r\n     require(ERC20Interface(Dai).transferFrom(msg.sender, address(this), allowanceDai));\r\n     addressToBalanceDAI[msg.sender] = add(addressToBalanceDAI[msg.sender], allowanceDai);\r\n     effectiveBalanceDAI[msg.sender] = sub(addressToBalanceEther[msg.sender], amountCompoundEther[msg.sender]);\r\n   }\r\n    // for Ether\r\n   function lendEther(uint _amount) public payable hasCorrectAmount(_amount){\r\n        require(_amount < effectiveBalanceEther[msg.sender]); // quick check\r\n        //Check amount is less than addressTo Balance;\r\n        mintCETH(_amount);\r\n        amountCompoundEther[msg.sender] = add(amountCompoundEther[msg.sender], _amount);\r\n        effectiveBalanceEther[msg.sender] = sub(addressToBalanceEther[msg.sender], amountCompoundEther[msg.sender] );\r\n   }\r\n    // For Ether\r\n    // The function borrows money, so that if you exceed the limit, you get\r\n    //liquidated\r\n    //Once this has been established, you will have\r\n    function borrowEther(uint256 _amount, uint256 _endTime ) public hasCorrectAmount(_amount){\r\n        require(addressToBalanceEther[msg.sender] >= _amount, \"Cannot borrow over limit\");\r\n        require(_endTime < now, \"End time lower than current time\");\r\n        //redeem the token from Compound\r\n        borrowInternalEther(_amount, _endTime);\r\n    }\r\n\r\n    function borrowDAI(uint256 _amount, uint256 _endTime) public {\r\n        require(addressToBalanceEther[msg.sender] >= _amount);\r\n        require(_endTime < now, \"End time lower than current time\");\r\n        borrowInternalDAI(_amount, _endTime);\r\n    }\r\n\r\n    function borrowInternalEther(uint256 _amount, uint256 _endTime) internal {\r\n      for( uint i = 0; i<addressToLoan[msg.sender].length; i++){\r\n          if(addressToLoan[msg.sender][i].endTime > now ){\r\n             addressToBalanceEther[msg.sender] = sub(addressToBalanceEther[msg.sender], addressToLoan[msg.sender][i].amount);\r\n             addressToLoan[msg.sender][i].active = false;\r\n             addressToLoan[msg.sender][i].timeRepaid = now;\r\n             addressToLoan[msg.sender][i].liquidated = true;\r\n             emit LiquidatedLoan(msg.sender, addressToLoan[msg.sender][i].Id, addressToLoan[msg.sender][i].amount, TypeLoan.LoanEther);\r\n          }\r\n      }\r\n      effectiveBalanceEther[msg.sender] = sub(effectiveBalanceEther[msg.sender], _amount);\r\n      msg.sender.transfer(_amount);\r\n      addressToLoan[msg.sender].push(LoanBorrow(\r\n        keccak256(abi.encodePacked(msg.sender, _amount,now)),\r\n         _amount,\r\n         now,\r\n         _endTime,\r\n         0,\r\n         true,\r\n         false,\r\n         TypeLoan.LoanEther\r\n       ));\r\n      emit BorrowedMoney(msg.sender, _amount, _endTime, TypeLoan.LoanEther);\r\n    }\r\n\r\n    function borrowInternalDAI(uint256 _amount, uint256 _endTime) internal {\r\n      for( uint i = 0; i<addressToLoan[msg.sender].length; i++){\r\n          if(addressToLoan[msg.sender][i].endTime > now && addressToLoan[msg.sender][i].loantype == TypeLoan.LoanDAI ){\r\n             addressToBalanceDAI[msg.sender] = sub(addressToBalanceDAI[msg.sender], addressToLoan[msg.sender][i].amount);\r\n             addressToLoan[msg.sender][i].active = false;\r\n             addressToLoan[msg.sender][i].timeRepaid = now;\r\n             addressToLoan[msg.sender][i].liquidated = true;\r\n             emit LiquidatedLoan(msg.sender, addressToLoan[msg.sender][i].Id, addressToLoan[msg.sender][i].amount, TypeLoan.LoanDAI);\r\n          }\r\n      }\r\n      effectiveBalanceDAI[msg.sender] = sub(effectiveBalanceDAI[msg.sender], _amount);\r\n      ERC20Interface(Dai).transfer(msg.sender, _amount);\r\n      addressToLoan[msg.sender].push(LoanBorrow(\r\n        keccak256(abi.encodePacked(msg.sender, _amount,now)),\r\n         _amount,\r\n         now,\r\n         _endTime,\r\n         0,\r\n         true,\r\n         false,\r\n         TypeLoan.LoanDAI\r\n       ));\r\n      emit BorrowedMoney(msg.sender, _amount, _endTime, TypeLoan.LoanDAI);\r\n    }\r\n\r\n    //REPAY THE BORROWED ETHER\r\n}\r\n",
  "sourcePath": "C:/Users/tredg/CreditNetwork/contracts/SecureContract.sol",
  "compiler": {
    "name": "solc",
    "version": "0.5.8+commit.23d335f2.Emscripten.clang"
  },
  "schemaVersion": "3.0.16",
  "updatedAt": "2019-09-29T14:37:02.648Z",
  "devdoc": {
    "methods": {}
  },
  "userdoc": {
    "methods": {}
  }
}