{
  "contractName": "Stateless",
  "abi": [
    {
      "constant": true,
      "inputs": [
        {
          "name": "",
          "type": "uint256"
        }
      ],
      "name": "verifiers",
      "outputs": [
        {
          "name": "",
          "type": "address"
        }
      ],
      "payable": false,
      "stateMutability": "view",
      "type": "function"
    },
    {
      "constant": false,
      "inputs": [
        {
          "name": "humanId",
          "type": "uint256"
        }
      ],
      "name": "verify",
      "outputs": [
        {
          "name": "",
          "type": "uint256"
        }
      ],
      "payable": false,
      "stateMutability": "nonpayable",
      "type": "function"
    },
    {
      "constant": true,
      "inputs": [],
      "name": "getVerifiers",
      "outputs": [
        {
          "name": "",
          "type": "address[16]"
        }
      ],
      "payable": false,
      "stateMutability": "view",
      "type": "function"
    }
  ],
  "bytecode": "0x608060405234801561001057600080fd5b506102b0806100206000396000f3fe608060405234801561001057600080fd5b50600436106100415760003560e01c80638753367f14610046578063a935e76614610088578063ac1eff68146100ce575b600080fd5b6100726004803603602081101561005c57600080fd5b810190808035906020019092919050505061013c565b6040518082815260200191505060405180910390f35b6100906101ad565b6040518082601060200280838360005b838110156100bb5780820151818401526020810190506100a0565b5050505090500191505060405180910390f35b6100fa600480360360208110156100e457600080fd5b810190808035906020019092919050505061022e565b604051808273ffffffffffffffffffffffffffffffffffffffff1673ffffffffffffffffffffffffffffffffffffffff16815260200191505060405180910390f35b600080821015801561014f5750600f8211155b61015857600080fd5b336000836010811061016657fe5b0160006101000a81548173ffffffffffffffffffffffffffffffffffffffff021916908373ffffffffffffffffffffffffffffffffffffffff160217905550819050919050565b6101b5610261565b6000601080602002604051908101604052809291908260108015610224576020028201915b8160009054906101000a900473ffffffffffffffffffffffffffffffffffffffff1673ffffffffffffffffffffffffffffffffffffffff16815260200190600101908083116101da575b5050505050905090565b6000816010811061023b57fe5b016000915054906101000a900473ffffffffffffffffffffffffffffffffffffffff1681565b60405180610200016040528060109060208202803883398082019150509050509056fea165627a7a723058206f46e374be3c212e34ed59f1d30d8d6c2fa725006f54b4663e7c414d473e197b0029",
  "source": "pragma solidity ^0.5.0;\n\ncontract Stateless {\n\n    address[16] public verifiers;\n\nfunction verify(uint humanId) public returns (uint) {\n  require(humanId >= 0 && humanId <= 15);\n\n  verifiers[humanId] = msg.sender;\n\n  return humanId;\n}\n\n// Retrieving the verifiers\nfunction getVerifiers() public view returns (address[16] memory) {\n  return verifiers;\n}\n\n}\n",
  "sourcePath": "/home/shevek/Documents/blockchain/stateless/contracts/Stateless.sol",
  "compiler": {
    "name": "solc",
    "version": "0.5.8+commit.23d335f2.Emscripten.clang"
  },
  "schemaVersion": "3.0.16",
  "updatedAt": "2019-10-03T22:16:20.521Z",
  "devdoc": {
    "methods": {}
  },
  "userdoc": {
    "methods": {}
  }
}